{
	"Contracts/Query.sol": {
		"NFTMinter": {
			"abi": [
				{
					"inputs": [],
					"stateMutability": "nonpayable",
					"type": "constructor"
				},
				{
					"inputs": [
						{
							"internalType": "address",
							"name": "target",
							"type": "address"
						}
					],
					"name": "AddressEmptyCode",
					"type": "error"
				},
				{
					"inputs": [
						{
							"internalType": "address",
							"name": "implementation",
							"type": "address"
						}
					],
					"name": "ERC1967InvalidImplementation",
					"type": "error"
				},
				{
					"inputs": [],
					"name": "ERC1967NonPayable",
					"type": "error"
				},
				{
					"inputs": [],
					"name": "FailedInnerCall",
					"type": "error"
				},
				{
					"inputs": [],
					"name": "InvalidInitialization",
					"type": "error"
				},
				{
					"inputs": [],
					"name": "NotInitializing",
					"type": "error"
				},
				{
					"inputs": [
						{
							"internalType": "address",
							"name": "owner",
							"type": "address"
						}
					],
					"name": "OwnableInvalidOwner",
					"type": "error"
				},
				{
					"inputs": [
						{
							"internalType": "address",
							"name": "account",
							"type": "address"
						}
					],
					"name": "OwnableUnauthorizedAccount",
					"type": "error"
				},
				{
					"inputs": [],
					"name": "UUPSUnauthorizedCallContext",
					"type": "error"
				},
				{
					"inputs": [
						{
							"internalType": "bytes32",
							"name": "slot",
							"type": "bytes32"
						}
					],
					"name": "UUPSUnsupportedProxiableUUID",
					"type": "error"
				},
				{
					"anonymous": false,
					"inputs": [
						{
							"indexed": false,
							"internalType": "uint64",
							"name": "version",
							"type": "uint64"
						}
					],
					"name": "Initialized",
					"type": "event"
				},
				{
					"anonymous": false,
					"inputs": [
						{
							"indexed": true,
							"internalType": "address",
							"name": "previousOwner",
							"type": "address"
						},
						{
							"indexed": true,
							"internalType": "address",
							"name": "newOwner",
							"type": "address"
						}
					],
					"name": "OwnershipTransferred",
					"type": "event"
				},
				{
					"anonymous": false,
					"inputs": [
						{
							"indexed": true,
							"internalType": "address",
							"name": "implementation",
							"type": "address"
						}
					],
					"name": "Upgraded",
					"type": "event"
				},
				{
					"inputs": [],
					"name": "UPGRADE_INTERFACE_VERSION",
					"outputs": [
						{
							"internalType": "string",
							"name": "",
							"type": "string"
						}
					],
					"stateMutability": "view",
					"type": "function"
				},
				{
					"inputs": [
						{
							"internalType": "address",
							"name": "initialOwner",
							"type": "address"
						},
						{
							"internalType": "address",
							"name": "_nftAddress",
							"type": "address"
						}
					],
					"name": "initialize",
					"outputs": [],
					"stateMutability": "nonpayable",
					"type": "function"
				},
				{
					"inputs": [],
					"name": "owner",
					"outputs": [
						{
							"internalType": "address",
							"name": "",
							"type": "address"
						}
					],
					"stateMutability": "view",
					"type": "function"
				},
				{
					"inputs": [],
					"name": "proxiableUUID",
					"outputs": [
						{
							"internalType": "bytes32",
							"name": "",
							"type": "bytes32"
						}
					],
					"stateMutability": "view",
					"type": "function"
				},
				{
					"inputs": [],
					"name": "renounceOwnership",
					"outputs": [],
					"stateMutability": "nonpayable",
					"type": "function"
				},
				{
					"inputs": [
						{
							"internalType": "address",
							"name": "newOwner",
							"type": "address"
						}
					],
					"name": "transferOwnership",
					"outputs": [],
					"stateMutability": "nonpayable",
					"type": "function"
				},
				{
					"inputs": [
						{
							"internalType": "address",
							"name": "newImplementation",
							"type": "address"
						},
						{
							"internalType": "bytes",
							"name": "data",
							"type": "bytes"
						}
					],
					"name": "upgradeToAndCall",
					"outputs": [],
					"stateMutability": "payable",
					"type": "function"
				},
				{
					"inputs": [
						{
							"internalType": "uint256",
							"name": "_nftId",
							"type": "uint256"
						}
					],
					"name": "whyBroken",
					"outputs": [
						{
							"components": [
								{
									"internalType": "bool",
									"name": "summoned",
									"type": "bool"
								},
								{
									"internalType": "uint256",
									"name": "strength",
									"type": "uint256"
								},
								{
									"internalType": "uint256",
									"name": "mintTime",
									"type": "uint256"
								},
								{
									"internalType": "bool",
									"name": "isFrozen",
									"type": "bool"
								},
								{
									"internalType": "uint256",
									"name": "rarity",
									"type": "uint256"
								},
								{
									"internalType": "uint256",
									"name": "ID",
									"type": "uint256"
								},
								{
									"internalType": "string",
									"name": "name",
									"type": "string"
								},
								{
									"internalType": "uint256",
									"name": "xp",
									"type": "uint256"
								}
							],
							"internalType": "struct Helper.TreaninProps",
							"name": "",
							"type": "tuple"
						}
					],
					"stateMutability": "view",
					"type": "function"
				}
			],
			"devdoc": {
				"errors": {
					"AddressEmptyCode(address)": [
						{
							"details": "There's no code at `target` (it is not a contract)."
						}
					],
					"ERC1967InvalidImplementation(address)": [
						{
							"details": "The `implementation` of the proxy is invalid."
						}
					],
					"ERC1967NonPayable()": [
						{
							"details": "An upgrade function sees `msg.value > 0` that may be lost."
						}
					],
					"FailedInnerCall()": [
						{
							"details": "A call to an address target failed. The target may have reverted."
						}
					],
					"InvalidInitialization()": [
						{
							"details": "The contract is already initialized."
						}
					],
					"NotInitializing()": [
						{
							"details": "The contract is not initializing."
						}
					],
					"OwnableInvalidOwner(address)": [
						{
							"details": "The owner is not a valid owner account. (eg. `address(0)`)"
						}
					],
					"OwnableUnauthorizedAccount(address)": [
						{
							"details": "The caller account is not authorized to perform an operation."
						}
					],
					"UUPSUnauthorizedCallContext()": [
						{
							"details": "The call is from an unauthorized context."
						}
					],
					"UUPSUnsupportedProxiableUUID(bytes32)": [
						{
							"details": "The storage `slot` is unsupported as a UUID."
						}
					]
				},
				"events": {
					"Initialized(uint64)": {
						"details": "Triggered when the contract has been initialized or reinitialized."
					},
					"Upgraded(address)": {
						"details": "Emitted when the implementation is upgraded."
					}
				},
				"kind": "dev",
				"methods": {
					"owner()": {
						"details": "Returns the address of the current owner."
					},
					"proxiableUUID()": {
						"details": "Implementation of the ERC1822 {proxiableUUID} function. This returns the storage slot used by the implementation. It is used to validate the implementation's compatibility when performing an upgrade. IMPORTANT: A proxy pointing at a proxiable contract should not be considered proxiable itself, because this risks bricking a proxy that upgrades to it, by delegating to itself until out of gas. Thus it is critical that this function revert if invoked through a proxy. This is guaranteed by the `notDelegated` modifier."
					},
					"renounceOwnership()": {
						"details": "Leaves the contract without owner. It will not be possible to call `onlyOwner` functions. Can only be called by the current owner. NOTE: Renouncing ownership will leave the contract without an owner, thereby disabling any functionality that is only available to the owner."
					},
					"transferOwnership(address)": {
						"details": "Transfers ownership of the contract to a new account (`newOwner`). Can only be called by the current owner."
					},
					"upgradeToAndCall(address,bytes)": {
						"custom:oz-upgrades-unsafe-allow-reachable": "delegatecall",
						"details": "Upgrade the implementation of the proxy to `newImplementation`, and subsequently execute the function call encoded in `data`. Calls {_authorizeUpgrade}. Emits an {Upgraded} event."
					}
				},
				"version": 1
			},
			"evm": {
				"assembly": "    /* \"Contracts/Query.sol\":428:1428  contract NFTMinter is Initializable, OwnableUpgradeable, UUPSUpgradeable {... */\n  mstore(0x40, 0xa0)\n    /* \"@openzeppelin/contracts-upgradeable/proxy/utils/UUPSUpgradeable.sol\":1171:1175  this */\n  address\n    /* \"@openzeppelin/contracts-upgradeable/proxy/utils/UUPSUpgradeable.sol\":1128:1176  address private immutable __self = address(this) */\n  0x80\n  mstore\n    /* \"Contracts/Query.sol\":537:592  constructor() {... */\n  callvalue\n  dup1\n  iszero\n  tag_1\n  jumpi\n  0x00\n  dup1\n  revert\ntag_1:\n  pop\n    /* \"Contracts/Query.sol\":562:584  _disableInitializers() */\n  tag_4\n    /* \"Contracts/Query.sol\":562:582  _disableInitializers */\n  tag_5\n    /* \"Contracts/Query.sol\":562:584  _disableInitializers() */\n  jump\t// in\ntag_4:\n    /* \"Contracts/Query.sol\":428:1428  contract NFTMinter is Initializable, OwnableUpgradeable, UUPSUpgradeable {... */\n  jump(tag_15)\n    /* \"@openzeppelin/contracts-upgradeable/proxy/utils/Initializable.sol\":7711:8133  function _disableInitializers() internal virtual {... */\ntag_5:\n    /* \"@openzeppelin/contracts-upgradeable/proxy/utils/Initializable.sol\":8870:8891  INITIALIZABLE_STORAGE */\n  0xf0c57e16840df040f15088dc2f81fe391c3923bec73e23a9662efc9c229c6a00\n    /* \"@openzeppelin/contracts-upgradeable/proxy/utils/Initializable.sol\":7900:7915  $._initializing */\n  dup1\n  sload\n  0x010000000000000000\n  swap1\n  div\n  0xff\n  and\n    /* \"@openzeppelin/contracts-upgradeable/proxy/utils/Initializable.sol\":7896:7972  if ($._initializing) {... */\n  iszero\n  tag_10\n  jumpi\n    /* \"@openzeppelin/contracts-upgradeable/proxy/utils/Initializable.sol\":7938:7961  InvalidInitialization() */\n  mload(0x40)\n  shl(0xe0, 0xf92ee8a9)\n  dup2\n  mstore\n  0x04\n  add\n  mload(0x40)\n  dup1\n  swap2\n  sub\n  swap1\n  revert\n    /* \"@openzeppelin/contracts-upgradeable/proxy/utils/Initializable.sol\":7896:7972  if ($._initializing) {... */\ntag_10:\n    /* \"@openzeppelin/contracts-upgradeable/proxy/utils/Initializable.sol\":7985:7999  $._initialized */\n  dup1\n  sload\n  sub(shl(0x40, 0x01), 0x01)\n  swap1\n  dup2\n  and\n    /* \"@openzeppelin/contracts-upgradeable/proxy/utils/Initializable.sol\":7985:8019  $._initialized != type(uint64).max */\n  eq\n    /* \"@openzeppelin/contracts-upgradeable/proxy/utils/Initializable.sol\":7981:8127  if ($._initialized != type(uint64).max) {... */\n  tag_11\n  jumpi\n    /* \"@openzeppelin/contracts-upgradeable/proxy/utils/Initializable.sol\":8035:8068  $._initialized = type(uint64).max */\n  dup1\n  sload\n  not(sub(shl(0x40, 0x01), 0x01))\n  and\n  sub(shl(0x40, 0x01), 0x01)\n  swap1\n  dup2\n  or\n  dup3\n  sstore\n    /* \"@openzeppelin/contracts-upgradeable/proxy/utils/Initializable.sol\":8087:8116  Initialized(type(uint64).max) */\n  mload(0x40)\n    /* \"#utility.yul\":158:208   */\n  swap1\n  dup2\n  mstore\n    /* \"@openzeppelin/contracts-upgradeable/proxy/utils/Initializable.sol\":8087:8116  Initialized(type(uint64).max) */\n  0xc7f505b2f371ae2175ee4913f4499e1f2633a7b5936321eed1cdaeb6115181d2\n  swap1\n    /* \"#utility.yul\":146:148   */\n  0x20\n    /* \"#utility.yul\":131:149   */\n  add\n    /* \"@openzeppelin/contracts-upgradeable/proxy/utils/Initializable.sol\":8087:8116  Initialized(type(uint64).max) */\n  mload(0x40)\n  dup1\n  swap2\n  sub\n  swap1\n  log1\n    /* \"@openzeppelin/contracts-upgradeable/proxy/utils/Initializable.sol\":7981:8127  if ($._initialized != type(uint64).max) {... */\ntag_11:\n    /* \"@openzeppelin/contracts-upgradeable/proxy/utils/Initializable.sol\":7760:8133  {... */\n  pop\n    /* \"@openzeppelin/contracts-upgradeable/proxy/utils/Initializable.sol\":7711:8133  function _disableInitializers() internal virtual {... */\n  jump\t// out\n    /* \"#utility.yul\":14:214   */\ntag_15:\n    /* \"Contracts/Query.sol\":428:1428  contract NFTMinter is Initializable, OwnableUpgradeable, UUPSUpgradeable {... */\n  mload(0x80)\n  codecopy(0x00, dataOffset(sub_0), dataSize(sub_0))\n  0x00\n  assignImmutable(\"0x0b83f23a4eeb8c3f5f7d5934a2289bcf0186d09a12e1b7f20adf54e4b179db15\")\n  return(0x00, dataSize(sub_0))\nstop\n\nsub_0: assembly {\n        /* \"Contracts/Query.sol\":428:1428  contract NFTMinter is Initializable, OwnableUpgradeable, UUPSUpgradeable {... */\n      mstore(0x40, 0x80)\n      jumpi(tag_1, lt(calldatasize, 0x04))\n      shr(0xe0, calldataload(0x00))\n      dup1\n      0x715018a6\n      gt\n      tag_10\n      jumpi\n      dup1\n      0x715018a6\n      eq\n      tag_6\n      jumpi\n      dup1\n      0x8da5cb5b\n      eq\n      tag_7\n      jumpi\n      dup1\n      0xad3cb1cc\n      eq\n      tag_8\n      jumpi\n      dup1\n      0xf2fde38b\n      eq\n      tag_9\n      jumpi\n      0x00\n      dup1\n      revert\n    tag_10:\n      dup1\n      0x485cc955\n      eq\n      tag_2\n      jumpi\n      dup1\n      0x4f1ef286\n      eq\n      tag_3\n      jumpi\n      dup1\n      0x52d1902d\n      eq\n      tag_4\n      jumpi\n      dup1\n      0x6247fca9\n      eq\n      tag_5\n      jumpi\n    tag_1:\n      0x00\n      dup1\n      revert\n        /* \"Contracts/Query.sol\":659:1037  function initialize(... */\n    tag_2:\n      callvalue\n      dup1\n      iszero\n      tag_11\n      jumpi\n      0x00\n      dup1\n      revert\n    tag_11:\n      pop\n      tag_12\n      tag_13\n      calldatasize\n      0x04\n      tag_14\n      jump\t// in\n    tag_13:\n      tag_15\n      jump\t// in\n    tag_12:\n      stop\n        /* \"@openzeppelin/contracts-upgradeable/proxy/utils/UUPSUpgradeable.sol\":4158:4372  function upgradeToAndCall(address newImplementation, bytes memory data) public payable virtual onlyProxy {... */\n    tag_3:\n      tag_12\n      tag_17\n      calldatasize\n      0x04\n      tag_18\n      jump\t// in\n    tag_17:\n      tag_19\n      jump\t// in\n        /* \"@openzeppelin/contracts-upgradeable/proxy/utils/UUPSUpgradeable.sol\":3705:3839  function proxiableUUID() external view virtual notDelegated returns (bytes32) {... */\n    tag_4:\n      callvalue\n      dup1\n      iszero\n      tag_20\n      jumpi\n      0x00\n      dup1\n      revert\n    tag_20:\n      pop\n      tag_21\n      tag_22\n      jump\t// in\n    tag_21:\n      mload(0x40)\n        /* \"#utility.yul\":2216:2241   */\n      swap1\n      dup2\n      mstore\n        /* \"#utility.yul\":2204:2206   */\n      0x20\n        /* \"#utility.yul\":2189:2207   */\n      add\n        /* \"@openzeppelin/contracts-upgradeable/proxy/utils/UUPSUpgradeable.sol\":3705:3839  function proxiableUUID() external view virtual notDelegated returns (bytes32) {... */\n    tag_23:\n      mload(0x40)\n      dup1\n      swap2\n      sub\n      swap1\n      return\n        /* \"Contracts/Query.sol\":1045:1315  function whyBroken(uint _nftId) external view returns (Helper.TreaninProps memory) {... */\n    tag_5:\n      callvalue\n      dup1\n      iszero\n      tag_25\n      jumpi\n      0x00\n      dup1\n      revert\n    tag_25:\n      pop\n      tag_26\n      tag_27\n      calldatasize\n      0x04\n      tag_28\n      jump\t// in\n    tag_27:\n      tag_29\n      jump\t// in\n    tag_26:\n      mload(0x40)\n      tag_23\n      swap2\n      swap1\n      tag_31\n      jump\t// in\n        /* \"@openzeppelin/contracts-upgradeable/access/OwnableUpgradeable.sol\":3155:3256  function renounceOwnership() public virtual onlyOwner {... */\n    tag_6:\n      callvalue\n      dup1\n      iszero\n      tag_32\n      jumpi\n      0x00\n      dup1\n      revert\n    tag_32:\n      pop\n      tag_12\n      tag_34\n      jump\t// in\n        /* \"@openzeppelin/contracts-upgradeable/access/OwnableUpgradeable.sol\":2441:2585  function owner() public view virtual returns (address) {... */\n    tag_7:\n      callvalue\n      dup1\n      iszero\n      tag_35\n      jumpi\n      0x00\n      dup1\n      revert\n    tag_35:\n      pop\n        /* \"@openzeppelin/contracts-upgradeable/access/OwnableUpgradeable.sol\":1313:1335  OwnableStorageLocation */\n      0x9016d09d72d40fdae2fd8ceac6b6234c7706214fd39c1cd1e609a0528c199300\n        /* \"@openzeppelin/contracts-upgradeable/access/OwnableUpgradeable.sol\":2570:2578  $._owner */\n      sload\n        /* \"@openzeppelin/contracts-upgradeable/access/OwnableUpgradeable.sol\":2441:2585  function owner() public view virtual returns (address) {... */\n      mload(0x40)\n      sub(shl(0xa0, 0x01), 0x01)\n        /* \"@openzeppelin/contracts-upgradeable/access/OwnableUpgradeable.sol\":2570:2578  $._owner */\n      swap1\n      swap2\n      and\n        /* \"#utility.yul\":3974:4025   */\n      dup2\n      mstore\n        /* \"#utility.yul\":3962:3964   */\n      0x20\n        /* \"#utility.yul\":3947:3965   */\n      add\n        /* \"@openzeppelin/contracts-upgradeable/access/OwnableUpgradeable.sol\":2441:2585  function owner() public view virtual returns (address) {... */\n      tag_23\n        /* \"#utility.yul\":3828:4031   */\n      jump\n        /* \"@openzeppelin/contracts-upgradeable/proxy/utils/UUPSUpgradeable.sol\":1819:1877  string public constant UPGRADE_INTERFACE_VERSION = \"5.0.0\" */\n    tag_8:\n      callvalue\n      dup1\n      iszero\n      tag_40\n      jumpi\n      0x00\n      dup1\n      revert\n    tag_40:\n      pop\n      tag_41\n      mload(0x40)\n      dup1\n      0x40\n      add\n      0x40\n      mstore\n      dup1\n      0x05\n      dup2\n      mstore\n      0x20\n      add\n      shl(0xdc, 0x0352e302e3)\n      dup2\n      mstore\n      pop\n      dup2\n      jump\n    tag_41:\n      mload(0x40)\n      tag_23\n      swap2\n      swap1\n      tag_44\n      jump\t// in\n        /* \"@openzeppelin/contracts-upgradeable/access/OwnableUpgradeable.sol\":3405:3620  function transferOwnership(address newOwner) public virtual onlyOwner {... */\n    tag_9:\n      callvalue\n      dup1\n      iszero\n      tag_45\n      jumpi\n      0x00\n      dup1\n      revert\n    tag_45:\n      pop\n      tag_12\n      tag_47\n      calldatasize\n      0x04\n      tag_48\n      jump\t// in\n    tag_47:\n      tag_49\n      jump\t// in\n        /* \"Contracts/Query.sol\":659:1037  function initialize(... */\n    tag_15:\n        /* \"@openzeppelin/contracts-upgradeable/proxy/utils/Initializable.sol\":8870:8891  INITIALIZABLE_STORAGE */\n      0xf0c57e16840df040f15088dc2f81fe391c3923bec73e23a9662efc9c229c6a00\n        /* \"@openzeppelin/contracts-upgradeable/proxy/utils/Initializable.sol\":4302:4317  $._initializing */\n      dup1\n      sload\n      shl(0x40, 0x01)\n      dup2\n      div\n      0xff\n      and\n        /* \"@openzeppelin/contracts-upgradeable/proxy/utils/Initializable.sol\":4301:4317  !$._initializing */\n      iszero\n      swap1\n        /* \"@openzeppelin/contracts-upgradeable/proxy/utils/Initializable.sol\":4348:4362  $._initialized */\n      0xffffffffffffffff\n      and\n        /* \"@openzeppelin/contracts-upgradeable/proxy/utils/Initializable.sol\":4158:4188  InitializableStorage storage $ */\n      0x00\n        /* \"@openzeppelin/contracts-upgradeable/proxy/utils/Initializable.sol\":4726:4742  initialized == 0 */\n      dup2\n      iszero\n        /* \"@openzeppelin/contracts-upgradeable/proxy/utils/Initializable.sol\":4726:4760  initialized == 0 && isTopLevelCall */\n      dup1\n      iszero\n      tag_53\n      jumpi\n      pop\n        /* \"@openzeppelin/contracts-upgradeable/proxy/utils/Initializable.sol\":4746:4760  isTopLevelCall */\n      dup3\n        /* \"@openzeppelin/contracts-upgradeable/proxy/utils/Initializable.sol\":4726:4760  initialized == 0 && isTopLevelCall */\n    tag_53:\n        /* \"@openzeppelin/contracts-upgradeable/proxy/utils/Initializable.sol\":4706:4760  bool initialSetup = initialized == 0 && isTopLevelCall */\n      swap1\n      pop\n        /* \"@openzeppelin/contracts-upgradeable/proxy/utils/Initializable.sol\":4770:4787  bool construction */\n      0x00\n        /* \"@openzeppelin/contracts-upgradeable/proxy/utils/Initializable.sol\":4790:4801  initialized */\n      dup3\n        /* \"@openzeppelin/contracts-upgradeable/proxy/utils/Initializable.sol\":4790:4806  initialized == 1 */\n      0xffffffffffffffff\n      and\n        /* \"@openzeppelin/contracts-upgradeable/proxy/utils/Initializable.sol\":4805:4806  1 */\n      0x01\n        /* \"@openzeppelin/contracts-upgradeable/proxy/utils/Initializable.sol\":4790:4806  initialized == 1 */\n      eq\n        /* \"@openzeppelin/contracts-upgradeable/proxy/utils/Initializable.sol\":4790:4840  initialized == 1 && address(this).code.length == 0 */\n      dup1\n      iszero\n      tag_54\n      jumpi\n      pop\n        /* \"@openzeppelin/contracts-upgradeable/proxy/utils/Initializable.sol\":4818:4822  this */\n      address\n        /* \"@openzeppelin/contracts-upgradeable/proxy/utils/Initializable.sol\":4810:4835  address(this).code.length */\n      extcodesize\n        /* \"@openzeppelin/contracts-upgradeable/proxy/utils/Initializable.sol\":4810:4840  address(this).code.length == 0 */\n      iszero\n        /* \"@openzeppelin/contracts-upgradeable/proxy/utils/Initializable.sol\":4790:4840  initialized == 1 && address(this).code.length == 0 */\n    tag_54:\n        /* \"@openzeppelin/contracts-upgradeable/proxy/utils/Initializable.sol\":4770:4840  bool construction = initialized == 1 && address(this).code.length == 0 */\n      swap1\n      pop\n        /* \"@openzeppelin/contracts-upgradeable/proxy/utils/Initializable.sol\":4856:4868  initialSetup */\n      dup2\n        /* \"@openzeppelin/contracts-upgradeable/proxy/utils/Initializable.sol\":4855:4868  !initialSetup */\n      iszero\n        /* \"@openzeppelin/contracts-upgradeable/proxy/utils/Initializable.sol\":4855:4885  !initialSetup && !construction */\n      dup1\n      iszero\n      tag_55\n      jumpi\n      pop\n        /* \"@openzeppelin/contracts-upgradeable/proxy/utils/Initializable.sol\":4873:4885  construction */\n      dup1\n        /* \"@openzeppelin/contracts-upgradeable/proxy/utils/Initializable.sol\":4872:4885  !construction */\n      iszero\n        /* \"@openzeppelin/contracts-upgradeable/proxy/utils/Initializable.sol\":4855:4885  !initialSetup && !construction */\n    tag_55:\n        /* \"@openzeppelin/contracts-upgradeable/proxy/utils/Initializable.sol\":4851:4942  if (!initialSetup && !construction) {... */\n      iszero\n      tag_56\n      jumpi\n        /* \"@openzeppelin/contracts-upgradeable/proxy/utils/Initializable.sol\":4908:4931  InvalidInitialization() */\n      mload(0x40)\n      shl(0xe0, 0xf92ee8a9)\n      dup2\n      mstore\n      0x04\n      add\n      mload(0x40)\n      dup1\n      swap2\n      sub\n      swap1\n      revert\n        /* \"@openzeppelin/contracts-upgradeable/proxy/utils/Initializable.sol\":4851:4942  if (!initialSetup && !construction) {... */\n    tag_56:\n        /* \"@openzeppelin/contracts-upgradeable/proxy/utils/Initializable.sol\":4951:4969  $._initialized = 1 */\n      dup5\n      sload\n      not(0xffffffffffffffff)\n      and\n        /* \"@openzeppelin/contracts-upgradeable/proxy/utils/Initializable.sol\":4968:4969  1 */\n      0x01\n        /* \"@openzeppelin/contracts-upgradeable/proxy/utils/Initializable.sol\":4951:4969  $._initialized = 1 */\n      or\n      dup6\n      sstore\n        /* \"@openzeppelin/contracts-upgradeable/proxy/utils/Initializable.sol\":4979:5046  if (isTopLevelCall) {... */\n      dup4\n      iszero\n      tag_57\n      jumpi\n        /* \"@openzeppelin/contracts-upgradeable/proxy/utils/Initializable.sol\":5013:5035  $._initializing = true */\n      dup5\n      sload\n      not(shl(0x40, 0xff))\n      and\n      shl(0x40, 0x01)\n      or\n      dup6\n      sstore\n        /* \"@openzeppelin/contracts-upgradeable/proxy/utils/Initializable.sol\":4979:5046  if (isTopLevelCall) {... */\n    tag_57:\n      sub(shl(0xa0, 0x01), 0x01)\n        /* \"Contracts/Query.sol\":785:811  initialOwner != address(0) */\n      dup8\n      and\n        /* \"Contracts/Query.sol\":777:829  require(initialOwner != address(0), \"Invalid Owner\") */\n      tag_59\n      jumpi\n      mload(0x40)\n      shl(0xe5, 0x461bcd)\n      dup2\n      mstore\n        /* \"#utility.yul\":4654:4656   */\n      0x20\n        /* \"Contracts/Query.sol\":777:829  require(initialOwner != address(0), \"Invalid Owner\") */\n      0x04\n      dup3\n      add\n        /* \"#utility.yul\":4636:4657   */\n      mstore\n        /* \"#utility.yul\":4693:4695   */\n      0x0d\n        /* \"#utility.yul\":4673:4691   */\n      0x24\n      dup3\n      add\n        /* \"#utility.yul\":4666:4696   */\n      mstore\n      shl(0x99, 0x24b73b30b634b21027bbb732b9)\n        /* \"#utility.yul\":4712:4730   */\n      0x44\n      dup3\n      add\n        /* \"#utility.yul\":4705:4748   */\n      mstore\n        /* \"#utility.yul\":4765:4783   */\n      0x64\n      add\n        /* \"Contracts/Query.sol\":777:829  require(initialOwner != address(0), \"Invalid Owner\") */\n    tag_60:\n      mload(0x40)\n      dup1\n      swap2\n      sub\n      swap1\n      revert\n    tag_59:\n      sub(shl(0xa0, 0x01), 0x01)\n        /* \"Contracts/Query.sol\":848:873  _nftAddress != address(0) */\n      dup7\n      and\n        /* \"Contracts/Query.sol\":840:897  require(_nftAddress != address(0), \"Invalid NFT Address\") */\n      tag_62\n      jumpi\n      mload(0x40)\n      shl(0xe5, 0x461bcd)\n      dup2\n      mstore\n        /* \"#utility.yul\":4996:4998   */\n      0x20\n        /* \"Contracts/Query.sol\":840:897  require(_nftAddress != address(0), \"Invalid NFT Address\") */\n      0x04\n      dup3\n      add\n        /* \"#utility.yul\":4978:4999   */\n      mstore\n        /* \"#utility.yul\":5035:5037   */\n      0x13\n        /* \"#utility.yul\":5015:5033   */\n      0x24\n      dup3\n      add\n        /* \"#utility.yul\":5008:5038   */\n      mstore\n      shl(0x68, 0x496e76616c6964204e46542041646472657373)\n        /* \"#utility.yul\":5054:5072   */\n      0x44\n      dup3\n      add\n        /* \"#utility.yul\":5047:5096   */\n      mstore\n        /* \"#utility.yul\":5113:5131   */\n      0x64\n      add\n        /* \"Contracts/Query.sol\":840:897  require(_nftAddress != address(0), \"Invalid NFT Address\") */\n      tag_60\n        /* \"#utility.yul\":4794:5137   */\n      jump\n        /* \"Contracts/Query.sol\":840:897  require(_nftAddress != address(0), \"Invalid NFT Address\") */\n    tag_62:\n        /* \"Contracts/Query.sol\":908:918  nftAddress */\n      0x00\n        /* \"Contracts/Query.sol\":908:932  nftAddress = _nftAddress */\n      dup1\n      sload\n      not(sub(shl(0xa0, 0x01), 0x01))\n      and\n      sub(shl(0xa0, 0x01), 0x01)\n      dup9\n      and\n      or\n      swap1\n      sstore\n        /* \"Contracts/Query.sol\":943:990  OwnableUpgradeable.__Ownable_init(initialOwner) */\n      tag_65\n        /* \"Contracts/Query.sol\":977:989  initialOwner */\n      dup8\n        /* \"Contracts/Query.sol\":943:976  OwnableUpgradeable.__Ownable_init */\n      tag_66\n        /* \"Contracts/Query.sol\":943:990  OwnableUpgradeable.__Ownable_init(initialOwner) */\n      jump\t// in\n    tag_65:\n        /* \"Contracts/Query.sol\":1001:1025  __UUPSUpgradeable_init() */\n      tag_67\n        /* \"Contracts/Query.sol\":1001:1023  __UUPSUpgradeable_init */\n      tag_68\n        /* \"Contracts/Query.sol\":1001:1025  __UUPSUpgradeable_init() */\n      jump\t// in\n    tag_67:\n        /* \"@openzeppelin/contracts-upgradeable/proxy/utils/Initializable.sol\":5070:5084  isTopLevelCall */\n      dup4\n        /* \"@openzeppelin/contracts-upgradeable/proxy/utils/Initializable.sol\":5066:5167  if (isTopLevelCall) {... */\n      iszero\n      tag_69\n      jumpi\n        /* \"@openzeppelin/contracts-upgradeable/proxy/utils/Initializable.sol\":5100:5123  $._initializing = false */\n      dup5\n      sload\n      not(shl(0x40, 0xff))\n      and\n      dup6\n      sstore\n        /* \"@openzeppelin/contracts-upgradeable/proxy/utils/Initializable.sol\":5142:5156  Initialized(1) */\n      mload(0x40)\n      0x01\n        /* \"#utility.yul\":5295:5345   */\n      dup2\n      mstore\n        /* \"@openzeppelin/contracts-upgradeable/proxy/utils/Initializable.sol\":5142:5156  Initialized(1) */\n      0xc7f505b2f371ae2175ee4913f4499e1f2633a7b5936321eed1cdaeb6115181d2\n      swap1\n        /* \"#utility.yul\":5283:5285   */\n      0x20\n        /* \"#utility.yul\":5268:5286   */\n      add\n        /* \"@openzeppelin/contracts-upgradeable/proxy/utils/Initializable.sol\":5142:5156  Initialized(1) */\n      mload(0x40)\n      dup1\n      swap2\n      sub\n      swap1\n      log1\n        /* \"@openzeppelin/contracts-upgradeable/proxy/utils/Initializable.sol\":5066:5167  if (isTopLevelCall) {... */\n    tag_69:\n        /* \"@openzeppelin/contracts-upgradeable/proxy/utils/Initializable.sol\":4092:5173  {... */\n      pop\n      pop\n      pop\n      pop\n      pop\n        /* \"Contracts/Query.sol\":659:1037  function initialize(... */\n      pop\n      pop\n      jump\t// out\n        /* \"@openzeppelin/contracts-upgradeable/proxy/utils/UUPSUpgradeable.sol\":4158:4372  function upgradeToAndCall(address newImplementation, bytes memory data) public payable virtual onlyProxy {... */\n    tag_19:\n        /* \"@openzeppelin/contracts-upgradeable/proxy/utils/UUPSUpgradeable.sol\":2653:2666  _checkProxy() */\n      tag_73\n        /* \"@openzeppelin/contracts-upgradeable/proxy/utils/UUPSUpgradeable.sol\":2653:2664  _checkProxy */\n      tag_74\n        /* \"@openzeppelin/contracts-upgradeable/proxy/utils/UUPSUpgradeable.sol\":2653:2666  _checkProxy() */\n      jump\t// in\n    tag_73:\n        /* \"@openzeppelin/contracts-upgradeable/proxy/utils/UUPSUpgradeable.sol\":4273:4309  _authorizeUpgrade(newImplementation) */\n      tag_76\n        /* \"@openzeppelin/contracts-upgradeable/proxy/utils/UUPSUpgradeable.sol\":4291:4308  newImplementation */\n      dup3\n        /* \"@openzeppelin/contracts-upgradeable/proxy/utils/UUPSUpgradeable.sol\":4273:4290  _authorizeUpgrade */\n      tag_77\n        /* \"@openzeppelin/contracts-upgradeable/proxy/utils/UUPSUpgradeable.sol\":4273:4309  _authorizeUpgrade(newImplementation) */\n      jump\t// in\n    tag_76:\n        /* \"@openzeppelin/contracts-upgradeable/proxy/utils/UUPSUpgradeable.sol\":4319:4365  _upgradeToAndCallUUPS(newImplementation, data) */\n      tag_78\n        /* \"@openzeppelin/contracts-upgradeable/proxy/utils/UUPSUpgradeable.sol\":4341:4358  newImplementation */\n      dup3\n        /* \"@openzeppelin/contracts-upgradeable/proxy/utils/UUPSUpgradeable.sol\":4360:4364  data */\n      dup3\n        /* \"@openzeppelin/contracts-upgradeable/proxy/utils/UUPSUpgradeable.sol\":4319:4340  _upgradeToAndCallUUPS */\n      tag_79\n        /* \"@openzeppelin/contracts-upgradeable/proxy/utils/UUPSUpgradeable.sol\":4319:4365  _upgradeToAndCallUUPS(newImplementation, data) */\n      jump\t// in\n    tag_78:\n        /* \"@openzeppelin/contracts-upgradeable/proxy/utils/UUPSUpgradeable.sol\":4158:4372  function upgradeToAndCall(address newImplementation, bytes memory data) public payable virtual onlyProxy {... */\n      pop\n      pop\n      jump\t// out\n        /* \"@openzeppelin/contracts-upgradeable/proxy/utils/UUPSUpgradeable.sol\":3705:3839  function proxiableUUID() external view virtual notDelegated returns (bytes32) {... */\n    tag_22:\n        /* \"@openzeppelin/contracts-upgradeable/proxy/utils/UUPSUpgradeable.sol\":3774:3781  bytes32 */\n      0x00\n        /* \"@openzeppelin/contracts-upgradeable/proxy/utils/UUPSUpgradeable.sol\":2924:2944  _checkNotDelegated() */\n      tag_81\n        /* \"@openzeppelin/contracts-upgradeable/proxy/utils/UUPSUpgradeable.sol\":2924:2942  _checkNotDelegated */\n      tag_82\n        /* \"@openzeppelin/contracts-upgradeable/proxy/utils/UUPSUpgradeable.sol\":2924:2944  _checkNotDelegated() */\n      jump\t// in\n    tag_81:\n      pop\n      0x00\n      dup1\n      mload\n      0x20\n      data_75b20eef8615de99c108b05f0dbda081c91897128caa336d75dffb97c4132b4d\n      dup4\n      codecopy\n      dup2\n      mload\n      swap2\n      mstore\n        /* \"@openzeppelin/contracts-upgradeable/proxy/utils/UUPSUpgradeable.sol\":3705:3839  function proxiableUUID() external view virtual notDelegated returns (bytes32) {... */\n      swap1\n      jump\t// out\n        /* \"Contracts/Query.sol\":1045:1315  function whyBroken(uint _nftId) external view returns (Helper.TreaninProps memory) {... */\n    tag_29:\n        /* \"Contracts/Query.sol\":1100:1126  Helper.TreaninProps memory */\n      tag_84\n      mload(0x40)\n      dup1\n      0x0100\n      add\n      0x40\n      mstore\n      dup1\n      iszero(iszero(0x00))\n      dup2\n      mstore\n      0x20\n      add\n      0x00\n      dup2\n      mstore\n      0x20\n      add\n      0x00\n      dup2\n      mstore\n      0x20\n      add\n      iszero(iszero(0x00))\n      dup2\n      mstore\n      0x20\n      add\n      0x00\n      dup2\n      mstore\n      0x20\n      add\n      0x00\n      dup2\n      mstore\n      0x20\n      add\n      0x60\n      dup2\n      mstore\n      0x20\n      add\n      0x00\n      dup2\n      mstore\n      pop\n      swap1\n      jump\n    tag_84:\n        /* \"Contracts/Query.sol\":1139:1171  Helper.TreaninProps memory props */\n      0x00\n        /* \"Contracts/Query.sol\":1182:1192  nftAddress */\n      dup1\n      sload\n        /* \"Contracts/Query.sol\":1174:1214  IERC721(nftAddress).treaninProps(_nftId) */\n      mload(0x40)\n      shl(0xe2, 0x268879c1)\n      dup2\n      mstore\n      0x04\n      dup2\n      add\n        /* \"#utility.yul\":2216:2241   */\n      dup6\n      swap1\n      mstore\n      sub(shl(0xa0, 0x01), 0x01)\n        /* \"Contracts/Query.sol\":1182:1192  nftAddress */\n      swap1\n      swap2\n      and\n      swap1\n        /* \"Contracts/Query.sol\":1174:1206  IERC721(nftAddress).treaninProps */\n      0x9a21e704\n      swap1\n        /* \"#utility.yul\":2189:2207   */\n      0x24\n      add\n        /* \"Contracts/Query.sol\":1174:1214  IERC721(nftAddress).treaninProps(_nftId) */\n      0x00\n      mload(0x40)\n      dup1\n      dup4\n      sub\n      dup2\n      dup7\n      gas\n      staticcall\n      iszero\n      dup1\n      iszero\n      tag_90\n      jumpi\n      returndatasize\n      0x00\n      dup1\n      returndatacopy\n      revert(0x00, returndatasize)\n    tag_90:\n      pop\n      pop\n      pop\n      pop\n      mload(0x40)\n      returndatasize\n      0x00\n      dup3\n      returndatacopy\n      0x1f\n      returndatasize\n      swap1\n      dup2\n      add\n      not(0x1f)\n      and\n      dup3\n      add\n      0x40\n      mstore\n      tag_91\n      swap2\n      swap1\n      dup2\n      add\n      swap1\n      tag_92\n      jump\t// in\n    tag_91:\n        /* \"Contracts/Query.sol\":1233:1247  props.summoned */\n      dup1\n      mload\n        /* \"Contracts/Query.sol\":1139:1214  Helper.TreaninProps memory props = IERC721(nftAddress).treaninProps(_nftId) */\n      swap1\n      swap2\n      pop\n        /* \"Contracts/Query.sol\":1225:1283  require(props.summoned, \"You have not activated your NFT\") */\n      tag_93\n      jumpi\n      mload(0x40)\n      shl(0xe5, 0x461bcd)\n      dup2\n      mstore\n        /* \"#utility.yul\":7392:7394   */\n      0x20\n        /* \"Contracts/Query.sol\":1225:1283  require(props.summoned, \"You have not activated your NFT\") */\n      0x04\n      dup3\n      add\n        /* \"#utility.yul\":7374:7395   */\n      mstore\n        /* \"#utility.yul\":7431:7433   */\n      0x1f\n        /* \"#utility.yul\":7411:7429   */\n      0x24\n      dup3\n      add\n        /* \"#utility.yul\":7404:7434   */\n      mstore\n        /* \"#utility.yul\":7470:7503   */\n      0x596f752068617665206e6f742061637469766174656420796f7572204e465400\n        /* \"#utility.yul\":7450:7468   */\n      0x44\n      dup3\n      add\n        /* \"#utility.yul\":7443:7504   */\n      mstore\n        /* \"#utility.yul\":7521:7539   */\n      0x64\n      add\n        /* \"Contracts/Query.sol\":1225:1283  require(props.summoned, \"You have not activated your NFT\") */\n      tag_60\n        /* \"#utility.yul\":7190:7545   */\n      jump\n        /* \"Contracts/Query.sol\":1225:1283  require(props.summoned, \"You have not activated your NFT\") */\n    tag_93:\n        /* \"Contracts/Query.sol\":1301:1306  props */\n      swap3\n        /* \"Contracts/Query.sol\":1045:1315  function whyBroken(uint _nftId) external view returns (Helper.TreaninProps memory) {... */\n      swap2\n      pop\n      pop\n      jump\t// out\n        /* \"@openzeppelin/contracts-upgradeable/access/OwnableUpgradeable.sol\":3155:3256  function renounceOwnership() public virtual onlyOwner {... */\n    tag_34:\n        /* \"@openzeppelin/contracts-upgradeable/access/OwnableUpgradeable.sol\":2334:2347  _checkOwner() */\n      tag_97\n        /* \"@openzeppelin/contracts-upgradeable/access/OwnableUpgradeable.sol\":2334:2345  _checkOwner */\n      tag_98\n        /* \"@openzeppelin/contracts-upgradeable/access/OwnableUpgradeable.sol\":2334:2347  _checkOwner() */\n      jump\t// in\n    tag_97:\n        /* \"@openzeppelin/contracts-upgradeable/access/OwnableUpgradeable.sol\":3219:3249  _transferOwnership(address(0)) */\n      tag_100\n        /* \"@openzeppelin/contracts-upgradeable/access/OwnableUpgradeable.sol\":3246:3247  0 */\n      0x00\n        /* \"@openzeppelin/contracts-upgradeable/access/OwnableUpgradeable.sol\":3219:3237  _transferOwnership */\n      tag_101\n        /* \"@openzeppelin/contracts-upgradeable/access/OwnableUpgradeable.sol\":3219:3249  _transferOwnership(address(0)) */\n      jump\t// in\n    tag_100:\n        /* \"@openzeppelin/contracts-upgradeable/access/OwnableUpgradeable.sol\":3155:3256  function renounceOwnership() public virtual onlyOwner {... */\n      jump\t// out\n        /* \"@openzeppelin/contracts-upgradeable/access/OwnableUpgradeable.sol\":3405:3620  function transferOwnership(address newOwner) public virtual onlyOwner {... */\n    tag_49:\n        /* \"@openzeppelin/contracts-upgradeable/access/OwnableUpgradeable.sol\":2334:2347  _checkOwner() */\n      tag_106\n        /* \"@openzeppelin/contracts-upgradeable/access/OwnableUpgradeable.sol\":2334:2345  _checkOwner */\n      tag_98\n        /* \"@openzeppelin/contracts-upgradeable/access/OwnableUpgradeable.sol\":2334:2347  _checkOwner() */\n      jump\t// in\n    tag_106:\n      sub(shl(0xa0, 0x01), 0x01)\n        /* \"@openzeppelin/contracts-upgradeable/access/OwnableUpgradeable.sol\":3489:3511  newOwner == address(0) */\n      dup2\n      and\n        /* \"@openzeppelin/contracts-upgradeable/access/OwnableUpgradeable.sol\":3485:3576  if (newOwner == address(0)) {... */\n      tag_108\n      jumpi\n        /* \"@openzeppelin/contracts-upgradeable/access/OwnableUpgradeable.sol\":3534:3565  OwnableInvalidOwner(address(0)) */\n      mload(0x40)\n      shl(0xe0, 0x1e4fbdf7)\n      dup2\n      mstore\n        /* \"@openzeppelin/contracts-upgradeable/access/OwnableUpgradeable.sol\":3562:3563  0 */\n      0x00\n        /* \"@openzeppelin/contracts-upgradeable/access/OwnableUpgradeable.sol\":3534:3565  OwnableInvalidOwner(address(0)) */\n      0x04\n      dup3\n      add\n        /* \"#utility.yul\":3974:4025   */\n      mstore\n        /* \"#utility.yul\":3947:3965   */\n      0x24\n      add\n        /* \"@openzeppelin/contracts-upgradeable/access/OwnableUpgradeable.sol\":3534:3565  OwnableInvalidOwner(address(0)) */\n      tag_60\n        /* \"#utility.yul\":3828:4031   */\n      jump\n        /* \"@openzeppelin/contracts-upgradeable/access/OwnableUpgradeable.sol\":3485:3576  if (newOwner == address(0)) {... */\n    tag_108:\n        /* \"@openzeppelin/contracts-upgradeable/access/OwnableUpgradeable.sol\":3585:3613  _transferOwnership(newOwner) */\n      tag_110\n        /* \"@openzeppelin/contracts-upgradeable/access/OwnableUpgradeable.sol\":3604:3612  newOwner */\n      dup2\n        /* \"@openzeppelin/contracts-upgradeable/access/OwnableUpgradeable.sol\":3585:3603  _transferOwnership */\n      tag_101\n        /* \"@openzeppelin/contracts-upgradeable/access/OwnableUpgradeable.sol\":3585:3613  _transferOwnership(newOwner) */\n      jump\t// in\n    tag_110:\n        /* \"@openzeppelin/contracts-upgradeable/access/OwnableUpgradeable.sol\":3405:3620  function transferOwnership(address newOwner) public virtual onlyOwner {... */\n      pop\n      jump\t// out\n        /* \"@openzeppelin/contracts-upgradeable/access/OwnableUpgradeable.sol\":1847:1974  function __Ownable_init(address initialOwner) internal onlyInitializing {... */\n    tag_66:\n        /* \"@openzeppelin/contracts-upgradeable/proxy/utils/Initializable.sol\":6931:6951  _checkInitializing() */\n      tag_113\n        /* \"@openzeppelin/contracts-upgradeable/proxy/utils/Initializable.sol\":6931:6949  _checkInitializing */\n      tag_114\n        /* \"@openzeppelin/contracts-upgradeable/proxy/utils/Initializable.sol\":6931:6951  _checkInitializing() */\n      jump\t// in\n    tag_113:\n        /* \"@openzeppelin/contracts-upgradeable/access/OwnableUpgradeable.sol\":1929:1967  __Ownable_init_unchained(initialOwner) */\n      tag_110\n        /* \"@openzeppelin/contracts-upgradeable/access/OwnableUpgradeable.sol\":1954:1966  initialOwner */\n      dup2\n        /* \"@openzeppelin/contracts-upgradeable/access/OwnableUpgradeable.sol\":1929:1953  __Ownable_init_unchained */\n      tag_117\n        /* \"@openzeppelin/contracts-upgradeable/access/OwnableUpgradeable.sol\":1929:1967  __Ownable_init_unchained(initialOwner) */\n      jump\t// in\n        /* \"@openzeppelin/contracts-upgradeable/proxy/utils/UUPSUpgradeable.sol\":2968:3035  function __UUPSUpgradeable_init() internal onlyInitializing {... */\n    tag_68:\n        /* \"@openzeppelin/contracts-upgradeable/proxy/utils/Initializable.sol\":6931:6951  _checkInitializing() */\n      tag_100\n        /* \"@openzeppelin/contracts-upgradeable/proxy/utils/Initializable.sol\":6931:6949  _checkInitializing */\n      tag_114\n        /* \"@openzeppelin/contracts-upgradeable/proxy/utils/Initializable.sol\":6931:6951  _checkInitializing() */\n      jump\t// in\n        /* \"@openzeppelin/contracts-upgradeable/proxy/utils/UUPSUpgradeable.sol\":4599:4911  function _checkProxy() internal view virtual {... */\n    tag_74:\n        /* \"@openzeppelin/contracts-upgradeable/proxy/utils/UUPSUpgradeable.sol\":4679:4683  this */\n      address\n      sub(shl(0xa0, 0x01), 0x01)\n        /* \"@openzeppelin/contracts-upgradeable/proxy/utils/UUPSUpgradeable.sol\":4688:4694  __self */\n      immutable(\"0x0b83f23a4eeb8c3f5f7d5934a2289bcf0186d09a12e1b7f20adf54e4b179db15\")\n        /* \"@openzeppelin/contracts-upgradeable/proxy/utils/UUPSUpgradeable.sol\":4671:4694  address(this) == __self */\n      and\n      eq\n      dup1\n        /* \"@openzeppelin/contracts-upgradeable/proxy/utils/UUPSUpgradeable.sol\":4671:4791  address(this) == __self || // Must be called through delegatecall... */\n      tag_122\n      jumpi\n      pop\n        /* \"@openzeppelin/contracts-upgradeable/proxy/utils/UUPSUpgradeable.sol\":4785:4791  __self */\n      immutable(\"0x0b83f23a4eeb8c3f5f7d5934a2289bcf0186d09a12e1b7f20adf54e4b179db15\")\n      sub(shl(0xa0, 0x01), 0x01)\n        /* \"@openzeppelin/contracts-upgradeable/proxy/utils/UUPSUpgradeable.sol\":4749:4791  ERC1967Utils.getImplementation() != __self */\n      and\n        /* \"@openzeppelin/contracts-upgradeable/proxy/utils/UUPSUpgradeable.sol\":4749:4781  ERC1967Utils.getImplementation() */\n      tag_123\n      0x00\n      dup1\n      mload\n      0x20\n      data_75b20eef8615de99c108b05f0dbda081c91897128caa336d75dffb97c4132b4d\n      dup4\n      codecopy\n      dup2\n      mload\n      swap2\n      mstore\n        /* \"@openzeppelin/contracts/proxy/ERC1967/ERC1967Utils.sol\":2035:2088  StorageSlot.getAddressSlot(IMPLEMENTATION_SLOT).value */\n      sload\n      sub(shl(0xa0, 0x01), 0x01)\n      and\n      swap1\n        /* \"@openzeppelin/contracts/proxy/ERC1967/ERC1967Utils.sol\":1957:2095  function getImplementation() internal view returns (address) {... */\n      jump\n        /* \"@openzeppelin/contracts-upgradeable/proxy/utils/UUPSUpgradeable.sol\":4749:4781  ERC1967Utils.getImplementation() */\n    tag_123:\n      sub(shl(0xa0, 0x01), 0x01)\n        /* \"@openzeppelin/contracts-upgradeable/proxy/utils/UUPSUpgradeable.sol\":4749:4791  ERC1967Utils.getImplementation() != __self */\n      and\n      eq\n      iszero\n        /* \"@openzeppelin/contracts-upgradeable/proxy/utils/UUPSUpgradeable.sol\":4671:4791  address(this) == __self || // Must be called through delegatecall... */\n    tag_122:\n        /* \"@openzeppelin/contracts-upgradeable/proxy/utils/UUPSUpgradeable.sol\":4654:4905  if (... */\n      iszero\n      tag_100\n      jumpi\n        /* \"@openzeppelin/contracts-upgradeable/proxy/utils/UUPSUpgradeable.sol\":4865:4894  UUPSUnauthorizedCallContext() */\n      mload(0x40)\n      shl(0xe1, 0x703e46dd)\n      dup2\n      mstore\n      0x04\n      add\n      mload(0x40)\n      dup1\n      swap2\n      sub\n      swap1\n      revert\n        /* \"Contracts/Query.sol\":1323:1423  function _authorizeUpgrade(... */\n    tag_77:\n        /* \"@openzeppelin/contracts-upgradeable/access/OwnableUpgradeable.sol\":2334:2347  _checkOwner() */\n      tag_110\n        /* \"@openzeppelin/contracts-upgradeable/access/OwnableUpgradeable.sol\":2334:2345  _checkOwner */\n      tag_98\n        /* \"@openzeppelin/contracts-upgradeable/access/OwnableUpgradeable.sol\":2334:2347  _checkOwner() */\n      jump\t// in\n        /* \"@openzeppelin/contracts-upgradeable/proxy/utils/UUPSUpgradeable.sol\":6052:6590  function _upgradeToAndCallUUPS(address newImplementation, bytes memory data) private {... */\n    tag_79:\n        /* \"@openzeppelin/contracts-upgradeable/proxy/utils/UUPSUpgradeable.sol\":6169:6186  newImplementation */\n      dup2\n      sub(shl(0xa0, 0x01), 0x01)\n        /* \"@openzeppelin/contracts-upgradeable/proxy/utils/UUPSUpgradeable.sol\":6151:6201  IERC1822Proxiable(newImplementation).proxiableUUID */\n      and\n      0x52d1902d\n        /* \"@openzeppelin/contracts-upgradeable/proxy/utils/UUPSUpgradeable.sol\":6151:6203  IERC1822Proxiable(newImplementation).proxiableUUID() */\n      mload(0x40)\n      dup2\n      0xffffffff\n      and\n      0xe0\n      shl\n      dup2\n      mstore\n      0x04\n      add\n      0x20\n      mload(0x40)\n      dup1\n      dup4\n      sub\n      dup2\n      dup7\n      gas\n      staticcall\n      swap3\n      pop\n      pop\n      pop\n      dup1\n      iszero\n      tag_130\n      jumpi\n      pop\n      0x40\n      dup1\n      mload\n      0x1f\n      returndatasize\n      swap1\n      dup2\n      add\n      not(0x1f)\n      and\n      dup3\n      add\n      swap1\n      swap3\n      mstore\n      tag_131\n      swap2\n      dup2\n      add\n      swap1\n      tag_132\n      jump\t// in\n    tag_131:\n      0x01\n    tag_130:\n        /* \"@openzeppelin/contracts-upgradeable/proxy/utils/UUPSUpgradeable.sol\":6147:6584  try IERC1822Proxiable(newImplementation).proxiableUUID() returns (bytes32 slot) {... */\n      tag_133\n      jumpi\n        /* \"@openzeppelin/contracts-upgradeable/proxy/utils/UUPSUpgradeable.sol\":6513:6573  ERC1967Utils.ERC1967InvalidImplementation(newImplementation) */\n      mload(0x40)\n      shl(0xe0, 0x4c9c8ce3)\n      dup2\n      mstore\n      sub(shl(0xa0, 0x01), 0x01)\n        /* \"#utility.yul\":3992:4024   */\n      dup4\n      and\n        /* \"@openzeppelin/contracts-upgradeable/proxy/utils/UUPSUpgradeable.sol\":6513:6573  ERC1967Utils.ERC1967InvalidImplementation(newImplementation) */\n      0x04\n      dup3\n      add\n        /* \"#utility.yul\":3974:4025   */\n      mstore\n        /* \"#utility.yul\":3947:3965   */\n      0x24\n      add\n        /* \"@openzeppelin/contracts-upgradeable/proxy/utils/UUPSUpgradeable.sol\":6513:6573  ERC1967Utils.ERC1967InvalidImplementation(newImplementation) */\n      tag_60\n        /* \"#utility.yul\":3828:4031   */\n      jump\n        /* \"@openzeppelin/contracts-upgradeable/proxy/utils/UUPSUpgradeable.sol\":6147:6584  try IERC1822Proxiable(newImplementation).proxiableUUID() returns (bytes32 slot) {... */\n    tag_133:\n      0x00\n      dup1\n      mload\n      0x20\n      data_75b20eef8615de99c108b05f0dbda081c91897128caa336d75dffb97c4132b4d\n      dup4\n      codecopy\n      dup2\n      mload\n      swap2\n      mstore\n        /* \"@openzeppelin/contracts-upgradeable/proxy/utils/UUPSUpgradeable.sol\":6245:6285  slot != ERC1967Utils.IMPLEMENTATION_SLOT */\n      dup2\n      eq\n        /* \"@openzeppelin/contracts-upgradeable/proxy/utils/UUPSUpgradeable.sol\":6241:6361  if (slot != ERC1967Utils.IMPLEMENTATION_SLOT) {... */\n      tag_139\n      jumpi\n        /* \"@openzeppelin/contracts-upgradeable/proxy/utils/UUPSUpgradeable.sol\":6312:6346  UUPSUnsupportedProxiableUUID(slot) */\n      mload(0x40)\n      shl(0xe2, 0x2a875269)\n      dup2\n      mstore\n      0x04\n      dup2\n      add\n        /* \"#utility.yul\":2216:2241   */\n      dup3\n      swap1\n      mstore\n        /* \"#utility.yul\":2189:2207   */\n      0x24\n      add\n        /* \"@openzeppelin/contracts-upgradeable/proxy/utils/UUPSUpgradeable.sol\":6312:6346  UUPSUnsupportedProxiableUUID(slot) */\n      tag_60\n        /* \"#utility.yul\":2070:2247   */\n      jump\n        /* \"@openzeppelin/contracts-upgradeable/proxy/utils/UUPSUpgradeable.sol\":6241:6361  if (slot != ERC1967Utils.IMPLEMENTATION_SLOT) {... */\n    tag_139:\n        /* \"@openzeppelin/contracts-upgradeable/proxy/utils/UUPSUpgradeable.sol\":6374:6428  ERC1967Utils.upgradeToAndCall(newImplementation, data) */\n      tag_141\n        /* \"@openzeppelin/contracts-upgradeable/proxy/utils/UUPSUpgradeable.sol\":6404:6421  newImplementation */\n      dup4\n        /* \"@openzeppelin/contracts-upgradeable/proxy/utils/UUPSUpgradeable.sol\":6423:6427  data */\n      dup4\n        /* \"@openzeppelin/contracts-upgradeable/proxy/utils/UUPSUpgradeable.sol\":6374:6403  ERC1967Utils.upgradeToAndCall */\n      tag_142\n        /* \"@openzeppelin/contracts-upgradeable/proxy/utils/UUPSUpgradeable.sol\":6374:6428  ERC1967Utils.upgradeToAndCall(newImplementation, data) */\n      jump\t// in\n    tag_141:\n        /* \"@openzeppelin/contracts-upgradeable/proxy/utils/UUPSUpgradeable.sol\":6204:6439  returns (bytes32 slot) {... */\n      pop\n        /* \"@openzeppelin/contracts-upgradeable/proxy/utils/UUPSUpgradeable.sol\":6052:6590  function _upgradeToAndCallUUPS(address newImplementation, bytes memory data) private {... */\n      pop\n      pop\n      jump\t// out\n        /* \"@openzeppelin/contracts-upgradeable/proxy/utils/UUPSUpgradeable.sol\":5028:5241  function _checkNotDelegated() internal view virtual {... */\n    tag_82:\n        /* \"@openzeppelin/contracts-upgradeable/proxy/utils/UUPSUpgradeable.sol\":5102:5106  this */\n      address\n      sub(shl(0xa0, 0x01), 0x01)\n        /* \"@openzeppelin/contracts-upgradeable/proxy/utils/UUPSUpgradeable.sol\":5111:5117  __self */\n      immutable(\"0x0b83f23a4eeb8c3f5f7d5934a2289bcf0186d09a12e1b7f20adf54e4b179db15\")\n        /* \"@openzeppelin/contracts-upgradeable/proxy/utils/UUPSUpgradeable.sol\":5094:5117  address(this) != __self */\n      and\n      eq\n        /* \"@openzeppelin/contracts-upgradeable/proxy/utils/UUPSUpgradeable.sol\":5090:5235  if (address(this) != __self) {... */\n      tag_100\n      jumpi\n        /* \"@openzeppelin/contracts-upgradeable/proxy/utils/UUPSUpgradeable.sol\":5195:5224  UUPSUnauthorizedCallContext() */\n      mload(0x40)\n      shl(0xe1, 0x703e46dd)\n      dup2\n      mstore\n      0x04\n      add\n      mload(0x40)\n      dup1\n      swap2\n      sub\n      swap1\n      revert\n        /* \"@openzeppelin/contracts-upgradeable/access/OwnableUpgradeable.sol\":2658:2820  function _checkOwner() internal view virtual {... */\n    tag_98:\n        /* \"@openzeppelin/contracts-upgradeable/utils/ContextUpgradeable.sol\":966:976  msg.sender */\n      caller\n        /* \"@openzeppelin/contracts-upgradeable/access/OwnableUpgradeable.sol\":2717:2724  owner() */\n      tag_148\n        /* \"@openzeppelin/contracts-upgradeable/access/OwnableUpgradeable.sol\":1313:1335  OwnableStorageLocation */\n      0x9016d09d72d40fdae2fd8ceac6b6234c7706214fd39c1cd1e609a0528c199300\n        /* \"@openzeppelin/contracts-upgradeable/access/OwnableUpgradeable.sol\":2570:2578  $._owner */\n      sload\n      sub(shl(0xa0, 0x01), 0x01)\n      and\n      swap1\n        /* \"@openzeppelin/contracts-upgradeable/access/OwnableUpgradeable.sol\":2441:2585  function owner() public view virtual returns (address) {... */\n      jump\n        /* \"@openzeppelin/contracts-upgradeable/access/OwnableUpgradeable.sol\":2717:2724  owner() */\n    tag_148:\n      sub(shl(0xa0, 0x01), 0x01)\n        /* \"@openzeppelin/contracts-upgradeable/access/OwnableUpgradeable.sol\":2717:2740  owner() != _msgSender() */\n      and\n      eq\n        /* \"@openzeppelin/contracts-upgradeable/access/OwnableUpgradeable.sol\":2713:2814  if (owner() != _msgSender()) {... */\n      tag_100\n      jumpi\n        /* \"@openzeppelin/contracts-upgradeable/access/OwnableUpgradeable.sol\":2763:2803  OwnableUnauthorizedAccount(_msgSender()) */\n      mload(0x40)\n      shl(0xe0, 0x118cdaa7)\n      dup2\n      mstore\n        /* \"@openzeppelin/contracts-upgradeable/utils/ContextUpgradeable.sol\":966:976  msg.sender */\n      caller\n        /* \"@openzeppelin/contracts-upgradeable/access/OwnableUpgradeable.sol\":2763:2803  OwnableUnauthorizedAccount(_msgSender()) */\n      0x04\n      dup3\n      add\n        /* \"#utility.yul\":3974:4025   */\n      mstore\n        /* \"#utility.yul\":3947:3965   */\n      0x24\n      add\n        /* \"@openzeppelin/contracts-upgradeable/access/OwnableUpgradeable.sol\":2763:2803  OwnableUnauthorizedAccount(_msgSender()) */\n      tag_60\n        /* \"#utility.yul\":3828:4031   */\n      jump\n        /* \"@openzeppelin/contracts-upgradeable/access/OwnableUpgradeable.sol\":3774:4022  function _transferOwnership(address newOwner) internal virtual {... */\n    tag_101:\n        /* \"@openzeppelin/contracts-upgradeable/access/OwnableUpgradeable.sol\":1313:1335  OwnableStorageLocation */\n      0x9016d09d72d40fdae2fd8ceac6b6234c7706214fd39c1cd1e609a0528c199300\n        /* \"@openzeppelin/contracts-upgradeable/access/OwnableUpgradeable.sol\":3923:3931  $._owner */\n      dup1\n      sload\n      not(sub(shl(0xa0, 0x01), 0x01))\n        /* \"@openzeppelin/contracts-upgradeable/access/OwnableUpgradeable.sol\":3941:3960  $._owner = newOwner */\n      dup2\n      and\n      sub(shl(0xa0, 0x01), 0x01)\n      dup5\n      dup2\n      and\n      swap2\n      dup3\n      or\n      dup5\n      sstore\n        /* \"@openzeppelin/contracts-upgradeable/access/OwnableUpgradeable.sol\":3975:4015  OwnershipTransferred(oldOwner, newOwner) */\n      mload(0x40)\n        /* \"@openzeppelin/contracts-upgradeable/access/OwnableUpgradeable.sol\":3923:3931  $._owner */\n      swap3\n      and\n      swap2\n      dup3\n      swap1\n        /* \"@openzeppelin/contracts-upgradeable/access/OwnableUpgradeable.sol\":3975:4015  OwnershipTransferred(oldOwner, newOwner) */\n      0x8be0079c531659141344cd1fd0a4f28419497f9722a3daafe3b4186f6b6457e0\n      swap1\n        /* \"@openzeppelin/contracts-upgradeable/access/OwnableUpgradeable.sol\":3847:3871  OwnableStorage storage $ */\n      0x00\n      swap1\n        /* \"@openzeppelin/contracts-upgradeable/access/OwnableUpgradeable.sol\":3975:4015  OwnershipTransferred(oldOwner, newOwner) */\n      log3\n        /* \"@openzeppelin/contracts-upgradeable/access/OwnableUpgradeable.sol\":3837:4022  {... */\n      pop\n      pop\n        /* \"@openzeppelin/contracts-upgradeable/access/OwnableUpgradeable.sol\":3774:4022  function _transferOwnership(address newOwner) internal virtual {... */\n      pop\n      jump\t// out\n        /* \"@openzeppelin/contracts-upgradeable/proxy/utils/Initializable.sol\":7084:7225  function _checkInitializing() internal view virtual {... */\n    tag_114:\n        /* \"@openzeppelin/contracts-upgradeable/proxy/utils/Initializable.sol\":8870:8891  INITIALIZABLE_STORAGE */\n      0xf0c57e16840df040f15088dc2f81fe391c3923bec73e23a9662efc9c229c6a00\n        /* \"@openzeppelin/contracts-upgradeable/proxy/utils/Initializable.sol\":8560:8600  _getInitializableStorage()._initializing */\n      sload\n      shl(0x40, 0x01)\n      swap1\n      div\n      0xff\n      and\n        /* \"@openzeppelin/contracts-upgradeable/proxy/utils/Initializable.sol\":7146:7219  if (!_isInitializing()) {... */\n      tag_100\n      jumpi\n        /* \"@openzeppelin/contracts-upgradeable/proxy/utils/Initializable.sol\":7191:7208  NotInitializing() */\n      mload(0x40)\n      shl(0xe3, 0x1afcd79f)\n      dup2\n      mstore\n      0x04\n      add\n      mload(0x40)\n      dup1\n      swap2\n      sub\n      swap1\n      revert\n        /* \"@openzeppelin/contracts-upgradeable/access/OwnableUpgradeable.sol\":1980:2215  function __Ownable_init_unchained(address initialOwner) internal onlyInitializing {... */\n    tag_117:\n        /* \"@openzeppelin/contracts-upgradeable/proxy/utils/Initializable.sol\":6931:6951  _checkInitializing() */\n      tag_106\n        /* \"@openzeppelin/contracts-upgradeable/proxy/utils/Initializable.sol\":6931:6949  _checkInitializing */\n      tag_114\n        /* \"@openzeppelin/contracts-upgradeable/proxy/utils/Initializable.sol\":6931:6951  _checkInitializing() */\n      jump\t// in\n        /* \"@openzeppelin/contracts/proxy/ERC1967/ERC1967Utils.sol\":2779:3114  function upgradeToAndCall(address newImplementation, bytes memory data) internal {... */\n    tag_142:\n        /* \"@openzeppelin/contracts/proxy/ERC1967/ERC1967Utils.sol\":2870:2907  _setImplementation(newImplementation) */\n      tag_169\n        /* \"@openzeppelin/contracts/proxy/ERC1967/ERC1967Utils.sol\":2889:2906  newImplementation */\n      dup3\n        /* \"@openzeppelin/contracts/proxy/ERC1967/ERC1967Utils.sol\":2870:2888  _setImplementation */\n      tag_170\n        /* \"@openzeppelin/contracts/proxy/ERC1967/ERC1967Utils.sol\":2870:2907  _setImplementation(newImplementation) */\n      jump\t// in\n    tag_169:\n        /* \"@openzeppelin/contracts/proxy/ERC1967/ERC1967Utils.sol\":2922:2949  Upgraded(newImplementation) */\n      mload(0x40)\n      sub(shl(0xa0, 0x01), 0x01)\n      dup4\n      and\n      swap1\n      0xbc7cd75a20ee27fd9adebab32041f755214dbc6bffa90cc0225b39da2e5c2d3b\n      swap1\n      0x00\n      swap1\n      log2\n        /* \"@openzeppelin/contracts/proxy/ERC1967/ERC1967Utils.sol\":2964:2975  data.length */\n      dup1\n      mload\n        /* \"@openzeppelin/contracts/proxy/ERC1967/ERC1967Utils.sol\":2964:2979  data.length > 0 */\n      iszero\n        /* \"@openzeppelin/contracts/proxy/ERC1967/ERC1967Utils.sol\":2960:3108  if (data.length > 0) {... */\n      tag_171\n      jumpi\n        /* \"@openzeppelin/contracts/proxy/ERC1967/ERC1967Utils.sol\":2995:3048  Address.functionDelegateCall(newImplementation, data) */\n      tag_141\n        /* \"@openzeppelin/contracts/proxy/ERC1967/ERC1967Utils.sol\":3024:3041  newImplementation */\n      dup3\n        /* \"@openzeppelin/contracts/proxy/ERC1967/ERC1967Utils.sol\":3043:3047  data */\n      dup3\n        /* \"@openzeppelin/contracts/proxy/ERC1967/ERC1967Utils.sol\":2995:3023  Address.functionDelegateCall */\n      tag_173\n        /* \"@openzeppelin/contracts/proxy/ERC1967/ERC1967Utils.sol\":2995:3048  Address.functionDelegateCall(newImplementation, data) */\n      jump\t// in\n        /* \"@openzeppelin/contracts/proxy/ERC1967/ERC1967Utils.sol\":2960:3108  if (data.length > 0) {... */\n    tag_171:\n        /* \"@openzeppelin/contracts/proxy/ERC1967/ERC1967Utils.sol\":3079:3097  _checkNonPayable() */\n      tag_78\n        /* \"@openzeppelin/contracts/proxy/ERC1967/ERC1967Utils.sol\":3079:3095  _checkNonPayable */\n      tag_176\n        /* \"@openzeppelin/contracts/proxy/ERC1967/ERC1967Utils.sol\":3079:3097  _checkNonPayable() */\n      jump\t// in\n        /* \"@openzeppelin/contracts/proxy/ERC1967/ERC1967Utils.sol\":2186:2467  function _setImplementation(address newImplementation) private {... */\n    tag_170:\n        /* \"@openzeppelin/contracts/proxy/ERC1967/ERC1967Utils.sol\":2263:2280  newImplementation */\n      dup1\n      sub(shl(0xa0, 0x01), 0x01)\n        /* \"@openzeppelin/contracts/proxy/ERC1967/ERC1967Utils.sol\":2263:2292  newImplementation.code.length */\n      and\n      extcodesize\n        /* \"@openzeppelin/contracts/proxy/ERC1967/ERC1967Utils.sol\":2296:2297  0 */\n      0x00\n        /* \"@openzeppelin/contracts/proxy/ERC1967/ERC1967Utils.sol\":2263:2297  newImplementation.code.length == 0 */\n      sub\n        /* \"@openzeppelin/contracts/proxy/ERC1967/ERC1967Utils.sol\":2259:2378  if (newImplementation.code.length == 0) {... */\n      tag_182\n      jumpi\n        /* \"@openzeppelin/contracts/proxy/ERC1967/ERC1967Utils.sol\":2320:2367  ERC1967InvalidImplementation(newImplementation) */\n      mload(0x40)\n      shl(0xe0, 0x4c9c8ce3)\n      dup2\n      mstore\n      sub(shl(0xa0, 0x01), 0x01)\n        /* \"#utility.yul\":3992:4024   */\n      dup3\n      and\n        /* \"@openzeppelin/contracts/proxy/ERC1967/ERC1967Utils.sol\":2320:2367  ERC1967InvalidImplementation(newImplementation) */\n      0x04\n      dup3\n      add\n        /* \"#utility.yul\":3974:4025   */\n      mstore\n        /* \"#utility.yul\":3947:3965   */\n      0x24\n      add\n        /* \"@openzeppelin/contracts/proxy/ERC1967/ERC1967Utils.sol\":2320:2367  ERC1967InvalidImplementation(newImplementation) */\n      tag_60\n        /* \"#utility.yul\":3828:4031   */\n      jump\n        /* \"@openzeppelin/contracts/proxy/ERC1967/ERC1967Utils.sol\":2259:2378  if (newImplementation.code.length == 0) {... */\n    tag_182:\n      0x00\n      dup1\n      mload\n      0x20\n      data_75b20eef8615de99c108b05f0dbda081c91897128caa336d75dffb97c4132b4d\n      dup4\n      codecopy\n      dup2\n      mload\n      swap2\n      mstore\n        /* \"@openzeppelin/contracts/proxy/ERC1967/ERC1967Utils.sol\":2387:2460  StorageSlot.getAddressSlot(IMPLEMENTATION_SLOT).value = newImplementation */\n      dup1\n      sload\n      not(sub(shl(0xa0, 0x01), 0x01))\n      and\n      sub(shl(0xa0, 0x01), 0x01)\n      swap3\n      swap1\n      swap3\n      and\n      swap2\n      swap1\n      swap2\n      or\n      swap1\n      sstore\n        /* \"@openzeppelin/contracts/proxy/ERC1967/ERC1967Utils.sol\":2186:2467  function _setImplementation(address newImplementation) private {... */\n      jump\t// out\n        /* \"@openzeppelin/contracts/utils/Address.sol\":4106:4359  function functionDelegateCall(address target, bytes memory data) internal returns (bytes memory) {... */\n    tag_173:\n        /* \"@openzeppelin/contracts/utils/Address.sol\":4189:4201  bytes memory */\n      0x60\n        /* \"@openzeppelin/contracts/utils/Address.sol\":4214:4226  bool success */\n      0x00\n        /* \"@openzeppelin/contracts/utils/Address.sol\":4228:4251  bytes memory returndata */\n      dup1\n        /* \"@openzeppelin/contracts/utils/Address.sol\":4255:4261  target */\n      dup5\n      sub(shl(0xa0, 0x01), 0x01)\n        /* \"@openzeppelin/contracts/utils/Address.sol\":4255:4274  target.delegatecall */\n      and\n        /* \"@openzeppelin/contracts/utils/Address.sol\":4275:4279  data */\n      dup5\n        /* \"@openzeppelin/contracts/utils/Address.sol\":4255:4280  target.delegatecall(data) */\n      mload(0x40)\n      tag_186\n      swap2\n      swap1\n      tag_187\n      jump\t// in\n    tag_186:\n      0x00\n      mload(0x40)\n      dup1\n      dup4\n      sub\n      dup2\n      dup6\n      gas\n      delegatecall\n      swap2\n      pop\n      pop\n      returndatasize\n      dup1\n      0x00\n      dup2\n      eq\n      tag_190\n      jumpi\n      mload(0x40)\n      swap2\n      pop\n      and(add(returndatasize, 0x3f), not(0x1f))\n      dup3\n      add\n      0x40\n      mstore\n      returndatasize\n      dup3\n      mstore\n      returndatasize\n      0x00\n      0x20\n      dup5\n      add\n      returndatacopy\n      jump(tag_189)\n    tag_190:\n      0x60\n      swap2\n      pop\n    tag_189:\n      pop\n        /* \"@openzeppelin/contracts/utils/Address.sol\":4213:4280  (bool success, bytes memory returndata) = target.delegatecall(data) */\n      swap2\n      pop\n      swap2\n      pop\n        /* \"@openzeppelin/contracts/utils/Address.sol\":4297:4352  verifyCallResultFromTarget(target, success, returndata) */\n      tag_191\n        /* \"@openzeppelin/contracts/utils/Address.sol\":4324:4330  target */\n      dup6\n        /* \"@openzeppelin/contracts/utils/Address.sol\":4332:4339  success */\n      dup4\n        /* \"@openzeppelin/contracts/utils/Address.sol\":4341:4351  returndata */\n      dup4\n        /* \"@openzeppelin/contracts/utils/Address.sol\":4297:4323  verifyCallResultFromTarget */\n      tag_192\n        /* \"@openzeppelin/contracts/utils/Address.sol\":4297:4352  verifyCallResultFromTarget(target, success, returndata) */\n      jump\t// in\n    tag_191:\n        /* \"@openzeppelin/contracts/utils/Address.sol\":4290:4352  return verifyCallResultFromTarget(target, success, returndata) */\n      swap6\n        /* \"@openzeppelin/contracts/utils/Address.sol\":4106:4359  function functionDelegateCall(address target, bytes memory data) internal returns (bytes memory) {... */\n      swap5\n      pop\n      pop\n      pop\n      pop\n      pop\n      jump\t// out\n        /* \"@openzeppelin/contracts/proxy/ERC1967/ERC1967Utils.sol\":6598:6720  function _checkNonPayable() private {... */\n    tag_176:\n        /* \"@openzeppelin/contracts/proxy/ERC1967/ERC1967Utils.sol\":6648:6657  msg.value */\n      callvalue\n        /* \"@openzeppelin/contracts/proxy/ERC1967/ERC1967Utils.sol\":6648:6661  msg.value > 0 */\n      iszero\n        /* \"@openzeppelin/contracts/proxy/ERC1967/ERC1967Utils.sol\":6644:6714  if (msg.value > 0) {... */\n      tag_100\n      jumpi\n        /* \"@openzeppelin/contracts/proxy/ERC1967/ERC1967Utils.sol\":6684:6703  ERC1967NonPayable() */\n      mload(0x40)\n      shl(0xe0, 0xb398979f)\n      dup2\n      mstore\n      0x04\n      add\n      mload(0x40)\n      dup1\n      swap2\n      sub\n      swap1\n      revert\n        /* \"@openzeppelin/contracts/utils/Address.sol\":4625:5207  function verifyCallResultFromTarget(... */\n    tag_192:\n        /* \"@openzeppelin/contracts/utils/Address.sol\":4769:4781  bytes memory */\n      0x60\n        /* \"@openzeppelin/contracts/utils/Address.sol\":4798:4805  success */\n      dup3\n        /* \"@openzeppelin/contracts/utils/Address.sol\":4793:5201  if (!success) {... */\n      tag_196\n      jumpi\n        /* \"@openzeppelin/contracts/utils/Address.sol\":4821:4840  _revert(returndata) */\n      tag_197\n        /* \"@openzeppelin/contracts/utils/Address.sol\":4829:4839  returndata */\n      dup3\n        /* \"@openzeppelin/contracts/utils/Address.sol\":4821:4828  _revert */\n      tag_198\n        /* \"@openzeppelin/contracts/utils/Address.sol\":4821:4840  _revert(returndata) */\n      jump\t// in\n    tag_197:\n        /* \"@openzeppelin/contracts/utils/Address.sol\":4793:5201  if (!success) {... */\n      jump(tag_199)\n    tag_196:\n        /* \"@openzeppelin/contracts/utils/Address.sol\":5045:5062  returndata.length */\n      dup2\n      mload\n        /* \"@openzeppelin/contracts/utils/Address.sol\":5045:5067  returndata.length == 0 */\n      iszero\n        /* \"@openzeppelin/contracts/utils/Address.sol\":5045:5094  returndata.length == 0 && target.code.length == 0 */\n      dup1\n      iszero\n      tag_200\n      jumpi\n      pop\n      sub(shl(0xa0, 0x01), 0x01)\n        /* \"@openzeppelin/contracts/utils/Address.sol\":5071:5089  target.code.length */\n      dup5\n      and\n      extcodesize\n        /* \"@openzeppelin/contracts/utils/Address.sol\":5071:5094  target.code.length == 0 */\n      iszero\n        /* \"@openzeppelin/contracts/utils/Address.sol\":5045:5094  returndata.length == 0 && target.code.length == 0 */\n    tag_200:\n        /* \"@openzeppelin/contracts/utils/Address.sol\":5041:5160  if (returndata.length == 0 && target.code.length == 0) {... */\n      iszero\n      tag_201\n      jumpi\n        /* \"@openzeppelin/contracts/utils/Address.sol\":5121:5145  AddressEmptyCode(target) */\n      mload(0x40)\n      shl(0xe0, 0x9996b315)\n      dup2\n      mstore\n      sub(shl(0xa0, 0x01), 0x01)\n        /* \"#utility.yul\":3992:4024   */\n      dup6\n      and\n        /* \"@openzeppelin/contracts/utils/Address.sol\":5121:5145  AddressEmptyCode(target) */\n      0x04\n      dup3\n      add\n        /* \"#utility.yul\":3974:4025   */\n      mstore\n        /* \"#utility.yul\":3947:3965   */\n      0x24\n      add\n        /* \"@openzeppelin/contracts/utils/Address.sol\":5121:5145  AddressEmptyCode(target) */\n      tag_60\n        /* \"#utility.yul\":3828:4031   */\n      jump\n        /* \"@openzeppelin/contracts/utils/Address.sol\":5041:5160  if (returndata.length == 0 && target.code.length == 0) {... */\n    tag_201:\n      pop\n        /* \"@openzeppelin/contracts/utils/Address.sol\":5180:5190  returndata */\n      dup1\n        /* \"@openzeppelin/contracts/utils/Address.sol\":4793:5201  if (!success) {... */\n    tag_199:\n        /* \"@openzeppelin/contracts/utils/Address.sol\":4625:5207  function verifyCallResultFromTarget(... */\n      swap4\n      swap3\n      pop\n      pop\n      pop\n      jump\t// out\n        /* \"@openzeppelin/contracts/utils/Address.sol\":5743:6259  function _revert(bytes memory returndata) private pure {... */\n    tag_198:\n        /* \"@openzeppelin/contracts/utils/Address.sol\":5874:5891  returndata.length */\n      dup1\n      mload\n        /* \"@openzeppelin/contracts/utils/Address.sol\":5874:5895  returndata.length > 0 */\n      iszero\n        /* \"@openzeppelin/contracts/utils/Address.sol\":5870:6253  if (returndata.length > 0) {... */\n      tag_204\n      jumpi\n        /* \"@openzeppelin/contracts/utils/Address.sol\":6102:6112  returndata */\n      dup1\n        /* \"@openzeppelin/contracts/utils/Address.sol\":6096:6113  mload(returndata) */\n      mload\n        /* \"@openzeppelin/contracts/utils/Address.sol\":6158:6173  returndata_size */\n      dup1\n        /* \"@openzeppelin/contracts/utils/Address.sol\":6145:6155  returndata */\n      dup3\n        /* \"@openzeppelin/contracts/utils/Address.sol\":6141:6143  32 */\n      0x20\n        /* \"@openzeppelin/contracts/utils/Address.sol\":6137:6156  add(32, returndata) */\n      add\n        /* \"@openzeppelin/contracts/utils/Address.sol\":6130:6174  revert(add(32, returndata), returndata_size) */\n      revert\n        /* \"@openzeppelin/contracts/utils/Address.sol\":5870:6253  if (returndata.length > 0) {... */\n    tag_204:\n        /* \"@openzeppelin/contracts/utils/Address.sol\":6225:6242  FailedInnerCall() */\n      mload(0x40)\n      shl(0xe1, 0x0a12f521)\n      dup2\n      mstore\n      0x04\n      add\n      mload(0x40)\n      dup1\n      swap2\n      sub\n      swap1\n      revert\n        /* \"#utility.yul\":14:187   */\n    tag_206:\n        /* \"#utility.yul\":82:102   */\n      dup1\n      calldataload\n      sub(shl(0xa0, 0x01), 0x01)\n        /* \"#utility.yul\":131:162   */\n      dup2\n      and\n        /* \"#utility.yul\":121:163   */\n      dup2\n      eq\n        /* \"#utility.yul\":111:181   */\n      tag_217\n      jumpi\n        /* \"#utility.yul\":177:178   */\n      0x00\n        /* \"#utility.yul\":174:175   */\n      dup1\n        /* \"#utility.yul\":167:179   */\n      revert\n        /* \"#utility.yul\":111:181   */\n    tag_217:\n        /* \"#utility.yul\":14:187   */\n      swap2\n      swap1\n      pop\n      jump\t// out\n        /* \"#utility.yul\":192:452   */\n    tag_14:\n        /* \"#utility.yul\":260:266   */\n      0x00\n        /* \"#utility.yul\":268:274   */\n      dup1\n        /* \"#utility.yul\":321:323   */\n      0x40\n        /* \"#utility.yul\":309:318   */\n      dup4\n        /* \"#utility.yul\":300:307   */\n      dup6\n        /* \"#utility.yul\":296:319   */\n      sub\n        /* \"#utility.yul\":292:324   */\n      slt\n        /* \"#utility.yul\":289:341   */\n      iszero\n      tag_219\n      jumpi\n        /* \"#utility.yul\":337:338   */\n      0x00\n        /* \"#utility.yul\":334:335   */\n      dup1\n        /* \"#utility.yul\":327:339   */\n      revert\n        /* \"#utility.yul\":289:341   */\n    tag_219:\n        /* \"#utility.yul\":360:389   */\n      tag_220\n        /* \"#utility.yul\":379:388   */\n      dup4\n        /* \"#utility.yul\":360:389   */\n      tag_206\n      jump\t// in\n    tag_220:\n        /* \"#utility.yul\":350:389   */\n      swap2\n      pop\n        /* \"#utility.yul\":408:446   */\n      tag_221\n        /* \"#utility.yul\":442:444   */\n      0x20\n        /* \"#utility.yul\":431:440   */\n      dup5\n        /* \"#utility.yul\":427:445   */\n      add\n        /* \"#utility.yul\":408:446   */\n      tag_206\n      jump\t// in\n    tag_221:\n        /* \"#utility.yul\":398:446   */\n      swap1\n      pop\n        /* \"#utility.yul\":192:452   */\n      swap3\n      pop\n      swap3\n      swap1\n      pop\n      jump\t// out\n        /* \"#utility.yul\":457:584   */\n    tag_207:\n        /* \"#utility.yul\":518:528   */\n      0x4e487b71\n        /* \"#utility.yul\":513:516   */\n      0xe0\n        /* \"#utility.yul\":509:529   */\n      shl\n        /* \"#utility.yul\":506:507   */\n      0x00\n        /* \"#utility.yul\":499:530   */\n      mstore\n        /* \"#utility.yul\":549:553   */\n      0x41\n        /* \"#utility.yul\":546:547   */\n      0x04\n        /* \"#utility.yul\":539:554   */\n      mstore\n        /* \"#utility.yul\":573:577   */\n      0x24\n        /* \"#utility.yul\":570:571   */\n      0x00\n        /* \"#utility.yul\":563:578   */\n      revert\n        /* \"#utility.yul\":589:844   */\n    tag_208:\n        /* \"#utility.yul\":661:663   */\n      0x40\n        /* \"#utility.yul\":655:664   */\n      mload\n        /* \"#utility.yul\":703:709   */\n      0x0100\n        /* \"#utility.yul\":691:710   */\n      dup2\n      add\n        /* \"#utility.yul\":740:758   */\n      0xffffffffffffffff\n        /* \"#utility.yul\":725:759   */\n      dup2\n      gt\n        /* \"#utility.yul\":761:783   */\n      dup3\n      dup3\n      lt\n        /* \"#utility.yul\":722:784   */\n      or\n        /* \"#utility.yul\":719:807   */\n      iszero\n      tag_225\n      jumpi\n        /* \"#utility.yul\":787:805   */\n      tag_225\n      tag_207\n      jump\t// in\n    tag_225:\n        /* \"#utility.yul\":823:825   */\n      0x40\n        /* \"#utility.yul\":816:838   */\n      mstore\n        /* \"#utility.yul\":589:844   */\n      swap1\n      jump\t// out\n        /* \"#utility.yul\":849:1124   */\n    tag_209:\n        /* \"#utility.yul\":920:922   */\n      0x40\n        /* \"#utility.yul\":914:923   */\n      mload\n        /* \"#utility.yul\":985:987   */\n      0x1f\n        /* \"#utility.yul\":966:979   */\n      dup3\n      add\n      not(0x1f)\n        /* \"#utility.yul\":962:989   */\n      and\n        /* \"#utility.yul\":950:990   */\n      dup2\n      add\n        /* \"#utility.yul\":1020:1038   */\n      0xffffffffffffffff\n        /* \"#utility.yul\":1005:1039   */\n      dup2\n      gt\n        /* \"#utility.yul\":1041:1063   */\n      dup3\n      dup3\n      lt\n        /* \"#utility.yul\":1002:1064   */\n      or\n        /* \"#utility.yul\":999:1087   */\n      iszero\n      tag_228\n      jumpi\n        /* \"#utility.yul\":1067:1085   */\n      tag_228\n      tag_207\n      jump\t// in\n    tag_228:\n        /* \"#utility.yul\":1103:1105   */\n      0x40\n        /* \"#utility.yul\":1096:1118   */\n      mstore\n        /* \"#utility.yul\":849:1124   */\n      swap2\n      swap1\n      pop\n      jump\t// out\n        /* \"#utility.yul\":1129:1315   */\n    tag_210:\n        /* \"#utility.yul\":1177:1181   */\n      0x00\n        /* \"#utility.yul\":1210:1228   */\n      0xffffffffffffffff\n        /* \"#utility.yul\":1202:1208   */\n      dup3\n        /* \"#utility.yul\":1199:1229   */\n      gt\n        /* \"#utility.yul\":1196:1252   */\n      iszero\n      tag_231\n      jumpi\n        /* \"#utility.yul\":1232:1250   */\n      tag_231\n      tag_207\n      jump\t// in\n    tag_231:\n      pop\n        /* \"#utility.yul\":1298:1300   */\n      0x1f\n        /* \"#utility.yul\":1277:1292   */\n      add\n      not(0x1f)\n        /* \"#utility.yul\":1273:1302   */\n      and\n        /* \"#utility.yul\":1304:1308   */\n      0x20\n        /* \"#utility.yul\":1269:1309   */\n      add\n      swap1\n        /* \"#utility.yul\":1129:1315   */\n      jump\t// out\n        /* \"#utility.yul\":1320:2065   */\n    tag_18:\n        /* \"#utility.yul\":1397:1403   */\n      0x00\n        /* \"#utility.yul\":1405:1411   */\n      dup1\n        /* \"#utility.yul\":1458:1460   */\n      0x40\n        /* \"#utility.yul\":1446:1455   */\n      dup4\n        /* \"#utility.yul\":1437:1444   */\n      dup6\n        /* \"#utility.yul\":1433:1456   */\n      sub\n        /* \"#utility.yul\":1429:1461   */\n      slt\n        /* \"#utility.yul\":1426:1478   */\n      iszero\n      tag_233\n      jumpi\n        /* \"#utility.yul\":1474:1475   */\n      0x00\n        /* \"#utility.yul\":1471:1472   */\n      dup1\n        /* \"#utility.yul\":1464:1476   */\n      revert\n        /* \"#utility.yul\":1426:1478   */\n    tag_233:\n        /* \"#utility.yul\":1497:1526   */\n      tag_234\n        /* \"#utility.yul\":1516:1525   */\n      dup4\n        /* \"#utility.yul\":1497:1526   */\n      tag_206\n      jump\t// in\n    tag_234:\n        /* \"#utility.yul\":1487:1526   */\n      swap2\n      pop\n        /* \"#utility.yul\":1577:1579   */\n      0x20\n        /* \"#utility.yul\":1566:1575   */\n      dup4\n        /* \"#utility.yul\":1562:1580   */\n      add\n        /* \"#utility.yul\":1549:1581   */\n      calldataload\n        /* \"#utility.yul\":1604:1622   */\n      0xffffffffffffffff\n        /* \"#utility.yul\":1596:1602   */\n      dup2\n        /* \"#utility.yul\":1593:1623   */\n      gt\n        /* \"#utility.yul\":1590:1640   */\n      iszero\n      tag_235\n      jumpi\n        /* \"#utility.yul\":1636:1637   */\n      0x00\n        /* \"#utility.yul\":1633:1634   */\n      dup1\n        /* \"#utility.yul\":1626:1638   */\n      revert\n        /* \"#utility.yul\":1590:1640   */\n    tag_235:\n        /* \"#utility.yul\":1659:1681   */\n      dup4\n      add\n        /* \"#utility.yul\":1712:1716   */\n      0x1f\n        /* \"#utility.yul\":1704:1717   */\n      dup2\n      add\n        /* \"#utility.yul\":1700:1727   */\n      dup6\n      sgt\n        /* \"#utility.yul\":1690:1745   */\n      tag_236\n      jumpi\n        /* \"#utility.yul\":1741:1742   */\n      0x00\n        /* \"#utility.yul\":1738:1739   */\n      dup1\n        /* \"#utility.yul\":1731:1743   */\n      revert\n        /* \"#utility.yul\":1690:1745   */\n    tag_236:\n        /* \"#utility.yul\":1777:1779   */\n      dup1\n        /* \"#utility.yul\":1764:1780   */\n      calldataload\n        /* \"#utility.yul\":1802:1850   */\n      tag_237\n        /* \"#utility.yul\":1818:1849   */\n      tag_238\n        /* \"#utility.yul\":1846:1848   */\n      dup3\n        /* \"#utility.yul\":1818:1849   */\n      tag_210\n      jump\t// in\n    tag_238:\n        /* \"#utility.yul\":1802:1850   */\n      tag_209\n      jump\t// in\n    tag_237:\n        /* \"#utility.yul\":1873:1875   */\n      dup2\n        /* \"#utility.yul\":1866:1871   */\n      dup2\n        /* \"#utility.yul\":1859:1876   */\n      mstore\n        /* \"#utility.yul\":1913:1920   */\n      dup7\n        /* \"#utility.yul\":1908:1910   */\n      0x20\n        /* \"#utility.yul\":1903:1905   */\n      dup4\n        /* \"#utility.yul\":1899:1901   */\n      dup6\n        /* \"#utility.yul\":1895:1906   */\n      add\n        /* \"#utility.yul\":1891:1911   */\n      add\n        /* \"#utility.yul\":1888:1921   */\n      gt\n        /* \"#utility.yul\":1885:1938   */\n      iszero\n      tag_239\n      jumpi\n        /* \"#utility.yul\":1934:1935   */\n      0x00\n        /* \"#utility.yul\":1931:1932   */\n      dup1\n        /* \"#utility.yul\":1924:1936   */\n      revert\n        /* \"#utility.yul\":1885:1938   */\n    tag_239:\n        /* \"#utility.yul\":1989:1991   */\n      dup2\n        /* \"#utility.yul\":1984:1986   */\n      0x20\n        /* \"#utility.yul\":1980:1982   */\n      dup5\n        /* \"#utility.yul\":1976:1987   */\n      add\n        /* \"#utility.yul\":1971:1973   */\n      0x20\n        /* \"#utility.yul\":1964:1969   */\n      dup4\n        /* \"#utility.yul\":1960:1974   */\n      add\n        /* \"#utility.yul\":1947:1992   */\n      calldatacopy\n        /* \"#utility.yul\":2033:2034   */\n      0x00\n        /* \"#utility.yul\":2028:2030   */\n      0x20\n        /* \"#utility.yul\":2023:2025   */\n      dup4\n        /* \"#utility.yul\":2016:2021   */\n      dup4\n        /* \"#utility.yul\":2012:2026   */\n      add\n        /* \"#utility.yul\":2008:2031   */\n      add\n        /* \"#utility.yul\":2001:2035   */\n      mstore\n        /* \"#utility.yul\":2054:2059   */\n      dup1\n        /* \"#utility.yul\":2044:2059   */\n      swap4\n      pop\n      pop\n      pop\n      pop\n        /* \"#utility.yul\":1320:2065   */\n      swap3\n      pop\n      swap3\n      swap1\n      pop\n      jump\t// out\n        /* \"#utility.yul\":2252:2432   */\n    tag_28:\n        /* \"#utility.yul\":2311:2317   */\n      0x00\n        /* \"#utility.yul\":2364:2366   */\n      0x20\n        /* \"#utility.yul\":2352:2361   */\n      dup3\n        /* \"#utility.yul\":2343:2350   */\n      dup5\n        /* \"#utility.yul\":2339:2362   */\n      sub\n        /* \"#utility.yul\":2335:2367   */\n      slt\n        /* \"#utility.yul\":2332:2384   */\n      iszero\n      tag_242\n      jumpi\n        /* \"#utility.yul\":2380:2381   */\n      0x00\n        /* \"#utility.yul\":2377:2378   */\n      dup1\n        /* \"#utility.yul\":2370:2382   */\n      revert\n        /* \"#utility.yul\":2332:2384   */\n    tag_242:\n      pop\n        /* \"#utility.yul\":2403:2426   */\n      calldataload\n      swap2\n        /* \"#utility.yul\":2252:2432   */\n      swap1\n      pop\n      jump\t// out\n        /* \"#utility.yul\":2437:2687   */\n    tag_211:\n        /* \"#utility.yul\":2522:2523   */\n      0x00\n        /* \"#utility.yul\":2532:2645   */\n    tag_244:\n        /* \"#utility.yul\":2546:2552   */\n      dup4\n        /* \"#utility.yul\":2543:2544   */\n      dup2\n        /* \"#utility.yul\":2540:2553   */\n      lt\n        /* \"#utility.yul\":2532:2645   */\n      iszero\n      tag_246\n      jumpi\n        /* \"#utility.yul\":2622:2633   */\n      dup2\n      dup2\n      add\n        /* \"#utility.yul\":2616:2634   */\n      mload\n        /* \"#utility.yul\":2603:2614   */\n      dup4\n      dup3\n      add\n        /* \"#utility.yul\":2596:2635   */\n      mstore\n        /* \"#utility.yul\":2568:2570   */\n      0x20\n        /* \"#utility.yul\":2561:2571   */\n      add\n        /* \"#utility.yul\":2532:2645   */\n      jump(tag_244)\n    tag_246:\n      pop\n      pop\n        /* \"#utility.yul\":2679:2680   */\n      0x00\n        /* \"#utility.yul\":2661:2677   */\n      swap2\n      add\n        /* \"#utility.yul\":2654:2681   */\n      mstore\n        /* \"#utility.yul\":2437:2687   */\n      jump\t// out\n        /* \"#utility.yul\":2692:2963   */\n    tag_212:\n        /* \"#utility.yul\":2734:2737   */\n      0x00\n        /* \"#utility.yul\":2772:2777   */\n      dup2\n        /* \"#utility.yul\":2766:2778   */\n      mload\n        /* \"#utility.yul\":2799:2805   */\n      dup1\n        /* \"#utility.yul\":2794:2797   */\n      dup5\n        /* \"#utility.yul\":2787:2806   */\n      mstore\n        /* \"#utility.yul\":2815:2891   */\n      tag_248\n        /* \"#utility.yul\":2884:2890   */\n      dup2\n        /* \"#utility.yul\":2877:2881   */\n      0x20\n        /* \"#utility.yul\":2872:2875   */\n      dup7\n        /* \"#utility.yul\":2868:2882   */\n      add\n        /* \"#utility.yul\":2861:2865   */\n      0x20\n        /* \"#utility.yul\":2854:2859   */\n      dup7\n        /* \"#utility.yul\":2850:2866   */\n      add\n        /* \"#utility.yul\":2815:2891   */\n      tag_211\n      jump\t// in\n    tag_248:\n        /* \"#utility.yul\":2945:2947   */\n      0x1f\n        /* \"#utility.yul\":2924:2939   */\n      add\n      not(0x1f)\n        /* \"#utility.yul\":2920:2949   */\n      and\n        /* \"#utility.yul\":2911:2950   */\n      swap3\n      swap1\n      swap3\n      add\n        /* \"#utility.yul\":2952:2956   */\n      0x20\n        /* \"#utility.yul\":2907:2957   */\n      add\n      swap3\n        /* \"#utility.yul\":2692:2963   */\n      swap2\n      pop\n      pop\n      jump\t// out\n        /* \"#utility.yul\":2968:3823   */\n    tag_31:\n        /* \"#utility.yul\":3157:3159   */\n      0x20\n        /* \"#utility.yul\":3146:3155   */\n      dup2\n        /* \"#utility.yul\":3139:3160   */\n      mstore\n        /* \"#utility.yul\":3216:3222   */\n      dup2\n        /* \"#utility.yul\":3210:3223   */\n      mload\n        /* \"#utility.yul\":3203:3224   */\n      iszero\n        /* \"#utility.yul\":3196:3225   */\n      iszero\n        /* \"#utility.yul\":3191:3193   */\n      0x20\n        /* \"#utility.yul\":3180:3189   */\n      dup3\n        /* \"#utility.yul\":3176:3194   */\n      add\n        /* \"#utility.yul\":3169:3226   */\n      mstore\n        /* \"#utility.yul\":3280:3282   */\n      0x20\n        /* \"#utility.yul\":3272:3278   */\n      dup3\n        /* \"#utility.yul\":3268:3283   */\n      add\n        /* \"#utility.yul\":3262:3284   */\n      mload\n        /* \"#utility.yul\":3257:3259   */\n      0x40\n        /* \"#utility.yul\":3246:3255   */\n      dup3\n        /* \"#utility.yul\":3242:3260   */\n      add\n        /* \"#utility.yul\":3235:3285   */\n      mstore\n        /* \"#utility.yul\":3339:3341   */\n      0x40\n        /* \"#utility.yul\":3331:3337   */\n      dup3\n        /* \"#utility.yul\":3327:3342   */\n      add\n        /* \"#utility.yul\":3321:3343   */\n      mload\n        /* \"#utility.yul\":3316:3318   */\n      0x60\n        /* \"#utility.yul\":3305:3314   */\n      dup3\n        /* \"#utility.yul\":3301:3319   */\n      add\n        /* \"#utility.yul\":3294:3344   */\n      mstore\n        /* \"#utility.yul\":3413:3415   */\n      0x60\n        /* \"#utility.yul\":3405:3411   */\n      dup3\n        /* \"#utility.yul\":3401:3416   */\n      add\n        /* \"#utility.yul\":3395:3417   */\n      mload\n        /* \"#utility.yul\":3388:3418   */\n      iszero\n        /* \"#utility.yul\":3381:3419   */\n      iszero\n        /* \"#utility.yul\":3375:3378   */\n      0x80\n        /* \"#utility.yul\":3364:3373   */\n      dup3\n        /* \"#utility.yul\":3360:3379   */\n      add\n        /* \"#utility.yul\":3353:3420   */\n      mstore\n        /* \"#utility.yul\":3475:3478   */\n      0x80\n        /* \"#utility.yul\":3467:3473   */\n      dup3\n        /* \"#utility.yul\":3463:3479   */\n      add\n        /* \"#utility.yul\":3457:3480   */\n      mload\n        /* \"#utility.yul\":3451:3454   */\n      0xa0\n        /* \"#utility.yul\":3440:3449   */\n      dup3\n        /* \"#utility.yul\":3436:3455   */\n      add\n        /* \"#utility.yul\":3429:3481   */\n      mstore\n        /* \"#utility.yul\":3536:3539   */\n      0xa0\n        /* \"#utility.yul\":3528:3534   */\n      dup3\n        /* \"#utility.yul\":3524:3540   */\n      add\n        /* \"#utility.yul\":3518:3541   */\n      mload\n        /* \"#utility.yul\":3512:3515   */\n      0xc0\n        /* \"#utility.yul\":3501:3510   */\n      dup3\n        /* \"#utility.yul\":3497:3516   */\n      add\n        /* \"#utility.yul\":3490:3542   */\n      mstore\n        /* \"#utility.yul\":3120:3124   */\n      0x00\n        /* \"#utility.yul\":3589:3592   */\n      0xc0\n        /* \"#utility.yul\":3581:3587   */\n      dup4\n        /* \"#utility.yul\":3577:3593   */\n      add\n        /* \"#utility.yul\":3571:3594   */\n      mload\n        /* \"#utility.yul\":3613:3619   */\n      0x0100\n        /* \"#utility.yul\":3656:3658   */\n      dup1\n        /* \"#utility.yul\":3650:3653   */\n      0xe0\n        /* \"#utility.yul\":3639:3648   */\n      dup6\n        /* \"#utility.yul\":3635:3654   */\n      add\n        /* \"#utility.yul\":3628:3659   */\n      mstore\n        /* \"#utility.yul\":3682:3734   */\n      tag_250\n        /* \"#utility.yul\":3729:3732   */\n      0x0120\n        /* \"#utility.yul\":3718:3727   */\n      dup6\n        /* \"#utility.yul\":3714:3733   */\n      add\n        /* \"#utility.yul\":3700:3712   */\n      dup4\n        /* \"#utility.yul\":3682:3734   */\n      tag_212\n      jump\t// in\n    tag_250:\n        /* \"#utility.yul\":3788:3791   */\n      0xe0\n        /* \"#utility.yul\":3776:3792   */\n      swap6\n      swap1\n      swap6\n      add\n        /* \"#utility.yul\":3770:3793   */\n      mload\n        /* \"#utility.yul\":3750:3768   */\n      swap4\n      add\n        /* \"#utility.yul\":3743:3794   */\n      swap3\n      swap1\n      swap3\n      mstore\n      pop\n        /* \"#utility.yul\":3668:3734   */\n      swap1\n      swap2\n        /* \"#utility.yul\":2968:3823   */\n      swap1\n      pop\n      jump\t// out\n        /* \"#utility.yul\":4036:4256   */\n    tag_44:\n        /* \"#utility.yul\":4185:4187   */\n      0x20\n        /* \"#utility.yul\":4174:4183   */\n      dup2\n        /* \"#utility.yul\":4167:4188   */\n      mstore\n        /* \"#utility.yul\":4148:4152   */\n      0x00\n        /* \"#utility.yul\":4205:4250   */\n      tag_199\n        /* \"#utility.yul\":4246:4248   */\n      0x20\n        /* \"#utility.yul\":4235:4244   */\n      dup4\n        /* \"#utility.yul\":4231:4249   */\n      add\n        /* \"#utility.yul\":4223:4229   */\n      dup5\n        /* \"#utility.yul\":4205:4250   */\n      tag_212\n      jump\t// in\n        /* \"#utility.yul\":4261:4447   */\n    tag_48:\n        /* \"#utility.yul\":4320:4326   */\n      0x00\n        /* \"#utility.yul\":4373:4375   */\n      0x20\n        /* \"#utility.yul\":4361:4370   */\n      dup3\n        /* \"#utility.yul\":4352:4359   */\n      dup5\n        /* \"#utility.yul\":4348:4371   */\n      sub\n        /* \"#utility.yul\":4344:4376   */\n      slt\n        /* \"#utility.yul\":4341:4393   */\n      iszero\n      tag_255\n      jumpi\n        /* \"#utility.yul\":4389:4390   */\n      0x00\n        /* \"#utility.yul\":4386:4387   */\n      dup1\n        /* \"#utility.yul\":4379:4391   */\n      revert\n        /* \"#utility.yul\":4341:4393   */\n    tag_255:\n        /* \"#utility.yul\":4412:4441   */\n      tag_199\n        /* \"#utility.yul\":4431:4440   */\n      dup3\n        /* \"#utility.yul\":4412:4441   */\n      tag_206\n      jump\t// in\n        /* \"#utility.yul\":5538:5702   */\n    tag_213:\n        /* \"#utility.yul\":5614:5627   */\n      dup1\n      mload\n        /* \"#utility.yul\":5663:5676   */\n      dup1\n      iszero\n        /* \"#utility.yul\":5656:5677   */\n      iszero\n        /* \"#utility.yul\":5646:5678   */\n      dup2\n      eq\n        /* \"#utility.yul\":5636:5696   */\n      tag_217\n      jumpi\n        /* \"#utility.yul\":5692:5693   */\n      0x00\n        /* \"#utility.yul\":5689:5690   */\n      dup1\n        /* \"#utility.yul\":5682:5694   */\n      revert\n        /* \"#utility.yul\":5707:6149   */\n    tag_214:\n        /* \"#utility.yul\":5761:5766   */\n      0x00\n        /* \"#utility.yul\":5814:5817   */\n      dup3\n        /* \"#utility.yul\":5807:5811   */\n      0x1f\n        /* \"#utility.yul\":5799:5805   */\n      dup4\n        /* \"#utility.yul\":5795:5812   */\n      add\n        /* \"#utility.yul\":5791:5818   */\n      slt\n        /* \"#utility.yul\":5781:5836   */\n      tag_264\n      jumpi\n        /* \"#utility.yul\":5832:5833   */\n      0x00\n        /* \"#utility.yul\":5829:5830   */\n      dup1\n        /* \"#utility.yul\":5822:5834   */\n      revert\n        /* \"#utility.yul\":5781:5836   */\n    tag_264:\n        /* \"#utility.yul\":5861:5867   */\n      dup2\n        /* \"#utility.yul\":5855:5868   */\n      mload\n        /* \"#utility.yul\":5892:5940   */\n      tag_265\n        /* \"#utility.yul\":5908:5939   */\n      tag_238\n        /* \"#utility.yul\":5936:5938   */\n      dup3\n        /* \"#utility.yul\":5908:5939   */\n      tag_210\n      jump\t// in\n        /* \"#utility.yul\":5892:5940   */\n    tag_265:\n        /* \"#utility.yul\":5965:5967   */\n      dup2\n        /* \"#utility.yul\":5956:5963   */\n      dup2\n        /* \"#utility.yul\":5949:5968   */\n      mstore\n        /* \"#utility.yul\":6011:6014   */\n      dup5\n        /* \"#utility.yul\":6004:6008   */\n      0x20\n        /* \"#utility.yul\":5999:6001   */\n      dup4\n        /* \"#utility.yul\":5991:5997   */\n      dup7\n        /* \"#utility.yul\":5987:6002   */\n      add\n        /* \"#utility.yul\":5983:6009   */\n      add\n        /* \"#utility.yul\":5980:6015   */\n      gt\n        /* \"#utility.yul\":5977:6032   */\n      iszero\n      tag_267\n      jumpi\n        /* \"#utility.yul\":6028:6029   */\n      0x00\n        /* \"#utility.yul\":6025:6026   */\n      dup1\n        /* \"#utility.yul\":6018:6030   */\n      revert\n        /* \"#utility.yul\":5977:6032   */\n    tag_267:\n        /* \"#utility.yul\":6041:6118   */\n      tag_268\n        /* \"#utility.yul\":6115:6117   */\n      dup3\n        /* \"#utility.yul\":6108:6112   */\n      0x20\n        /* \"#utility.yul\":6099:6106   */\n      dup4\n        /* \"#utility.yul\":6095:6113   */\n      add\n        /* \"#utility.yul\":6088:6092   */\n      0x20\n        /* \"#utility.yul\":6080:6086   */\n      dup8\n        /* \"#utility.yul\":6076:6093   */\n      add\n        /* \"#utility.yul\":6041:6118   */\n      tag_211\n      jump\t// in\n    tag_268:\n        /* \"#utility.yul\":6136:6143   */\n      swap5\n        /* \"#utility.yul\":5707:6149   */\n      swap4\n      pop\n      pop\n      pop\n      pop\n      jump\t// out\n        /* \"#utility.yul\":6154:7185   */\n    tag_92:\n        /* \"#utility.yul\":6254:6260   */\n      0x00\n        /* \"#utility.yul\":6307:6309   */\n      0x20\n        /* \"#utility.yul\":6295:6304   */\n      dup3\n        /* \"#utility.yul\":6286:6293   */\n      dup5\n        /* \"#utility.yul\":6282:6305   */\n      sub\n        /* \"#utility.yul\":6278:6310   */\n      slt\n        /* \"#utility.yul\":6275:6327   */\n      iszero\n      tag_270\n      jumpi\n        /* \"#utility.yul\":6323:6324   */\n      0x00\n        /* \"#utility.yul\":6320:6321   */\n      dup1\n        /* \"#utility.yul\":6313:6325   */\n      revert\n        /* \"#utility.yul\":6275:6327   */\n    tag_270:\n        /* \"#utility.yul\":6356:6365   */\n      dup2\n        /* \"#utility.yul\":6350:6366   */\n      mload\n        /* \"#utility.yul\":6385:6403   */\n      0xffffffffffffffff\n        /* \"#utility.yul\":6426:6428   */\n      dup1\n        /* \"#utility.yul\":6418:6424   */\n      dup3\n        /* \"#utility.yul\":6415:6429   */\n      gt\n        /* \"#utility.yul\":6412:6446   */\n      iszero\n      tag_271\n      jumpi\n        /* \"#utility.yul\":6442:6443   */\n      0x00\n        /* \"#utility.yul\":6439:6440   */\n      dup1\n        /* \"#utility.yul\":6432:6444   */\n      revert\n        /* \"#utility.yul\":6412:6446   */\n    tag_271:\n        /* \"#utility.yul\":6465:6487   */\n      swap1\n      dup4\n      add\n      swap1\n        /* \"#utility.yul\":6521:6527   */\n      0x0100\n        /* \"#utility.yul\":6503:6519   */\n      dup3\n      dup7\n      sub\n        /* \"#utility.yul\":6499:6528   */\n      slt\n        /* \"#utility.yul\":6496:6545   */\n      iszero\n      tag_272\n      jumpi\n        /* \"#utility.yul\":6541:6542   */\n      0x00\n        /* \"#utility.yul\":6538:6539   */\n      dup1\n        /* \"#utility.yul\":6531:6543   */\n      revert\n        /* \"#utility.yul\":6496:6545   */\n    tag_272:\n        /* \"#utility.yul\":6567:6589   */\n      tag_273\n      tag_208\n      jump\t// in\n    tag_273:\n        /* \"#utility.yul\":6612:6642   */\n      tag_274\n        /* \"#utility.yul\":6639:6641   */\n      dup4\n        /* \"#utility.yul\":6612:6642   */\n      tag_213\n      jump\t// in\n    tag_274:\n        /* \"#utility.yul\":6605:6610   */\n      dup2\n        /* \"#utility.yul\":6598:6643   */\n      mstore\n        /* \"#utility.yul\":6689:6691   */\n      0x20\n        /* \"#utility.yul\":6685:6687   */\n      dup4\n        /* \"#utility.yul\":6681:6692   */\n      add\n        /* \"#utility.yul\":6675:6693   */\n      mload\n        /* \"#utility.yul\":6670:6672   */\n      0x20\n        /* \"#utility.yul\":6663:6668   */\n      dup3\n        /* \"#utility.yul\":6659:6673   */\n      add\n        /* \"#utility.yul\":6652:6694   */\n      mstore\n        /* \"#utility.yul\":6740:6742   */\n      0x40\n        /* \"#utility.yul\":6736:6738   */\n      dup4\n        /* \"#utility.yul\":6732:6743   */\n      add\n        /* \"#utility.yul\":6726:6744   */\n      mload\n        /* \"#utility.yul\":6721:6723   */\n      0x40\n        /* \"#utility.yul\":6714:6719   */\n      dup3\n        /* \"#utility.yul\":6710:6724   */\n      add\n        /* \"#utility.yul\":6703:6745   */\n      mstore\n        /* \"#utility.yul\":6777:6816   */\n      tag_275\n        /* \"#utility.yul\":6812:6814   */\n      0x60\n        /* \"#utility.yul\":6808:6810   */\n      dup5\n        /* \"#utility.yul\":6804:6815   */\n      add\n        /* \"#utility.yul\":6777:6816   */\n      tag_213\n      jump\t// in\n    tag_275:\n        /* \"#utility.yul\":6772:6774   */\n      0x60\n        /* \"#utility.yul\":6765:6770   */\n      dup3\n        /* \"#utility.yul\":6761:6775   */\n      add\n        /* \"#utility.yul\":6754:6817   */\n      mstore\n        /* \"#utility.yul\":6864:6867   */\n      0x80\n        /* \"#utility.yul\":6860:6862   */\n      dup4\n        /* \"#utility.yul\":6856:6868   */\n      add\n        /* \"#utility.yul\":6850:6869   */\n      mload\n        /* \"#utility.yul\":6844:6847   */\n      0x80\n        /* \"#utility.yul\":6837:6842   */\n      dup3\n        /* \"#utility.yul\":6833:6848   */\n      add\n        /* \"#utility.yul\":6826:6870   */\n      mstore\n        /* \"#utility.yul\":6917:6920   */\n      0xa0\n        /* \"#utility.yul\":6913:6915   */\n      dup4\n        /* \"#utility.yul\":6909:6921   */\n      add\n        /* \"#utility.yul\":6903:6922   */\n      mload\n        /* \"#utility.yul\":6897:6900   */\n      0xa0\n        /* \"#utility.yul\":6890:6895   */\n      dup3\n        /* \"#utility.yul\":6886:6901   */\n      add\n        /* \"#utility.yul\":6879:6923   */\n      mstore\n        /* \"#utility.yul\":6962:6965   */\n      0xc0\n        /* \"#utility.yul\":6958:6960   */\n      dup4\n        /* \"#utility.yul\":6954:6966   */\n      add\n        /* \"#utility.yul\":6948:6967   */\n      mload\n        /* \"#utility.yul\":6992:6994   */\n      dup3\n        /* \"#utility.yul\":6982:6990   */\n      dup2\n        /* \"#utility.yul\":6979:6995   */\n      gt\n        /* \"#utility.yul\":6976:7012   */\n      iszero\n      tag_276\n      jumpi\n        /* \"#utility.yul\":7008:7009   */\n      0x00\n        /* \"#utility.yul\":7005:7006   */\n      dup1\n        /* \"#utility.yul\":6998:7010   */\n      revert\n        /* \"#utility.yul\":6976:7012   */\n    tag_276:\n        /* \"#utility.yul\":7045:7101   */\n      tag_277\n        /* \"#utility.yul\":7093:7100   */\n      dup8\n        /* \"#utility.yul\":7082:7090   */\n      dup3\n        /* \"#utility.yul\":7078:7080   */\n      dup7\n        /* \"#utility.yul\":7074:7091   */\n      add\n        /* \"#utility.yul\":7045:7101   */\n      tag_214\n      jump\t// in\n    tag_277:\n        /* \"#utility.yul\":7039:7042   */\n      0xc0\n        /* \"#utility.yul\":7032:7037   */\n      dup4\n        /* \"#utility.yul\":7028:7043   */\n      add\n        /* \"#utility.yul\":7021:7102   */\n      mstore\n      pop\n        /* \"#utility.yul\":7149:7152   */\n      0xe0\n        /* \"#utility.yul\":7145:7147   */\n      dup4\n        /* \"#utility.yul\":7141:7153   */\n      add\n        /* \"#utility.yul\":7135:7154   */\n      mload\n        /* \"#utility.yul\":7129:7132   */\n      0xe0\n        /* \"#utility.yul\":7122:7127   */\n      dup3\n        /* \"#utility.yul\":7118:7133   */\n      add\n        /* \"#utility.yul\":7111:7155   */\n      mstore\n        /* \"#utility.yul\":7174:7179   */\n      dup1\n        /* \"#utility.yul\":7164:7179   */\n      swap4\n      pop\n      pop\n      pop\n      pop\n        /* \"#utility.yul\":6154:7185   */\n      swap3\n      swap2\n      pop\n      pop\n      jump\t// out\n        /* \"#utility.yul\":7550:7734   */\n    tag_132:\n        /* \"#utility.yul\":7620:7626   */\n      0x00\n        /* \"#utility.yul\":7673:7675   */\n      0x20\n        /* \"#utility.yul\":7661:7670   */\n      dup3\n        /* \"#utility.yul\":7652:7659   */\n      dup5\n        /* \"#utility.yul\":7648:7671   */\n      sub\n        /* \"#utility.yul\":7644:7676   */\n      slt\n        /* \"#utility.yul\":7641:7693   */\n      iszero\n      tag_280\n      jumpi\n        /* \"#utility.yul\":7689:7690   */\n      0x00\n        /* \"#utility.yul\":7686:7687   */\n      dup1\n        /* \"#utility.yul\":7679:7691   */\n      revert\n        /* \"#utility.yul\":7641:7693   */\n    tag_280:\n      pop\n        /* \"#utility.yul\":7712:7728   */\n      mload\n      swap2\n        /* \"#utility.yul\":7550:7734   */\n      swap1\n      pop\n      jump\t// out\n        /* \"#utility.yul\":7739:8026   */\n    tag_187:\n        /* \"#utility.yul\":7868:7871   */\n      0x00\n        /* \"#utility.yul\":7906:7912   */\n      dup3\n        /* \"#utility.yul\":7900:7913   */\n      mload\n        /* \"#utility.yul\":7922:7988   */\n      tag_282\n        /* \"#utility.yul\":7981:7987   */\n      dup2\n        /* \"#utility.yul\":7976:7979   */\n      dup5\n        /* \"#utility.yul\":7969:7973   */\n      0x20\n        /* \"#utility.yul\":7961:7967   */\n      dup8\n        /* \"#utility.yul\":7957:7974   */\n      add\n        /* \"#utility.yul\":7922:7988   */\n      tag_211\n      jump\t// in\n    tag_282:\n        /* \"#utility.yul\":8004:8020   */\n      swap2\n      swap1\n      swap2\n      add\n      swap3\n        /* \"#utility.yul\":7739:8026   */\n      swap2\n      pop\n      pop\n      jump\t// out\n    stop\n    data_75b20eef8615de99c108b05f0dbda081c91897128caa336d75dffb97c4132b4d 360894a13ba1a3210667c828492db98dca3e2076cc3735a920a3ca505d382bbc\n\n    auxdata: 0xa26469706673582212207d1fa597574fd7909448af359b312de67ff55679e573ec0ba636eb179d857fdb64736f6c63430008140033\n}\n",
				"bytecode": {
					"linkReferences": {},
					"object": "60a060405230608052348015610013575f80fd5b5061001c610021565b6100d3565b7ff0c57e16840df040f15088dc2f81fe391c3923bec73e23a9662efc9c229c6a00805468010000000000000000900460ff16156100715760405163f92ee8a960e01b815260040160405180910390fd5b80546001600160401b03908116146100d05780546001600160401b0319166001600160401b0390811782556040519081527fc7f505b2f371ae2175ee4913f4499e1f2633a7b5936321eed1cdaeb6115181d29060200160405180910390a15b50565b608051610de06100f95f395f81816105390152818161056201526106a60152610de05ff3fe608060405260043610610079575f3560e01c8063715018a61161004c578063715018a6146101045780638da5cb5b14610118578063ad3cb1cc1461015e578063f2fde38b1461019b575f80fd5b8063485cc9551461007d5780634f1ef2861461009e57806352d1902d146100b15780636247fca9146100d8575b5f80fd5b348015610088575f80fd5b5061009c6100973660046109ec565b6101ba565b005b61009c6100ac366004610ab3565b610382565b3480156100bc575f80fd5b506100c56103a1565b6040519081526020015b60405180910390f35b3480156100e3575f80fd5b506100f76100f2366004610b3e565b6103bc565b6040516100cf9190610ba2565b34801561010f575f80fd5b5061009c6104c5565b348015610123575f80fd5b507f9016d09d72d40fdae2fd8ceac6b6234c7706214fd39c1cd1e609a0528c199300546040516001600160a01b0390911681526020016100cf565b348015610169575f80fd5b5061018e604051806040016040528060058152602001640352e302e360dc1b81525081565b6040516100cf9190610c14565b3480156101a6575f80fd5b5061009c6101b5366004610c26565b6104d8565b7ff0c57e16840df040f15088dc2f81fe391c3923bec73e23a9662efc9c229c6a008054600160401b810460ff16159067ffffffffffffffff165f811580156101ff5750825b90505f8267ffffffffffffffff16600114801561021b5750303b155b905081158015610229575080155b156102475760405163f92ee8a960e01b815260040160405180910390fd5b845467ffffffffffffffff19166001178555831561027157845460ff60401b1916600160401b1785555b6001600160a01b0387166102bc5760405162461bcd60e51b815260206004820152600d60248201526c24b73b30b634b21027bbb732b960991b60448201526064015b60405180910390fd5b6001600160a01b0386166103085760405162461bcd60e51b8152602060048201526013602482015272496e76616c6964204e4654204164647265737360681b60448201526064016102b3565b5f80546001600160a01b0319166001600160a01b03881617905561032b87610515565b610333610526565b831561037957845460ff60401b19168555604051600181527fc7f505b2f371ae2175ee4913f4499e1f2633a7b5936321eed1cdaeb6115181d29060200160405180910390a15b50505050505050565b61038a61052e565b610393826105d2565b61039d82826105da565b5050565b5f6103aa61069b565b505f80516020610d8b83398151915290565b6104016040518061010001604052805f151581526020015f81526020015f81526020015f151581526020015f81526020015f8152602001606081526020015f81525090565b5f805460405163268879c160e21b8152600481018590526001600160a01b0390911690639a21e704906024015f60405180830381865afa158015610447573d5f803e3d5ffd5b505050506040513d5f823e601f3d908101601f1916820160405261046e9190810190610c98565b80519091506104bf5760405162461bcd60e51b815260206004820152601f60248201527f596f752068617665206e6f742061637469766174656420796f7572204e46540060448201526064016102b3565b92915050565b6104cd6106e4565b6104d65f61073f565b565b6104e06106e4565b6001600160a01b03811661050957604051631e4fbdf760e01b81525f60048201526024016102b3565b6105128161073f565b50565b61051d6107af565b610512816107f8565b6104d66107af565b306001600160a01b037f00000000000000000000000000000000000000000000000000000000000000001614806105b457507f00000000000000000000000000000000000000000000000000000000000000006001600160a01b03166105a85f80516020610d8b833981519152546001600160a01b031690565b6001600160a01b031614155b156104d65760405163703e46dd60e11b815260040160405180910390fd5b6105126106e4565b816001600160a01b03166352d1902d6040518163ffffffff1660e01b8152600401602060405180830381865afa925050508015610634575060408051601f3d908101601f1916820190925261063191810190610d58565b60015b61065c57604051634c9c8ce360e01b81526001600160a01b03831660048201526024016102b3565b5f80516020610d8b833981519152811461068c57604051632a87526960e21b8152600481018290526024016102b3565b6106968383610800565b505050565b306001600160a01b037f000000000000000000000000000000000000000000000000000000000000000016146104d65760405163703e46dd60e11b815260040160405180910390fd5b336107167f9016d09d72d40fdae2fd8ceac6b6234c7706214fd39c1cd1e609a0528c199300546001600160a01b031690565b6001600160a01b0316146104d65760405163118cdaa760e01b81523360048201526024016102b3565b7f9016d09d72d40fdae2fd8ceac6b6234c7706214fd39c1cd1e609a0528c19930080546001600160a01b031981166001600160a01b03848116918217845560405192169182907f8be0079c531659141344cd1fd0a4f28419497f9722a3daafe3b4186f6b6457e0905f90a3505050565b7ff0c57e16840df040f15088dc2f81fe391c3923bec73e23a9662efc9c229c6a0054600160401b900460ff166104d657604051631afcd79f60e31b815260040160405180910390fd5b6104e06107af565b61080982610855565b6040516001600160a01b038316907fbc7cd75a20ee27fd9adebab32041f755214dbc6bffa90cc0225b39da2e5c2d3b905f90a280511561084d5761069682826108b8565b61039d61092a565b806001600160a01b03163b5f0361088a57604051634c9c8ce360e01b81526001600160a01b03821660048201526024016102b3565b5f80516020610d8b83398151915280546001600160a01b0319166001600160a01b0392909216919091179055565b60605f80846001600160a01b0316846040516108d49190610d6f565b5f60405180830381855af49150503d805f811461090c576040519150601f19603f3d011682016040523d82523d5f602084013e610911565b606091505b5091509150610921858383610949565b95945050505050565b34156104d65760405163b398979f60e01b815260040160405180910390fd5b60608261095e57610959826109a8565b6109a1565b815115801561097557506001600160a01b0384163b155b1561099e57604051639996b31560e01b81526001600160a01b03851660048201526024016102b3565b50805b9392505050565b8051156109b85780518082602001fd5b604051630a12f52160e11b815260040160405180910390fd5b80356001600160a01b03811681146109e7575f80fd5b919050565b5f80604083850312156109fd575f80fd5b610a06836109d1565b9150610a14602084016109d1565b90509250929050565b634e487b7160e01b5f52604160045260245ffd5b604051610100810167ffffffffffffffff81118282101715610a5557610a55610a1d565b60405290565b604051601f8201601f1916810167ffffffffffffffff81118282101715610a8457610a84610a1d565b604052919050565b5f67ffffffffffffffff821115610aa557610aa5610a1d565b50601f01601f191660200190565b5f8060408385031215610ac4575f80fd5b610acd836109d1565b9150602083013567ffffffffffffffff811115610ae8575f80fd5b8301601f81018513610af8575f80fd5b8035610b0b610b0682610a8c565b610a5b565b818152866020838501011115610b1f575f80fd5b816020840160208301375f602083830101528093505050509250929050565b5f60208284031215610b4e575f80fd5b5035919050565b5f5b83811015610b6f578181015183820152602001610b57565b50505f910152565b5f8151808452610b8e816020860160208601610b55565b601f01601f19169290920160200192915050565b602081528151151560208201526020820151604082015260408201516060820152606082015115156080820152608082015160a082015260a082015160c08201525f60c08301516101008060e0850152610c00610120850183610b77565b60e095909501519301929092525090919050565b602081525f6109a16020830184610b77565b5f60208284031215610c36575f80fd5b6109a1826109d1565b805180151581146109e7575f80fd5b5f82601f830112610c5d575f80fd5b8151610c6b610b0682610a8c565b818152846020838601011115610c7f575f80fd5b610c90826020830160208701610b55565b949350505050565b5f60208284031215610ca8575f80fd5b815167ffffffffffffffff80821115610cbf575f80fd5b908301906101008286031215610cd3575f80fd5b610cdb610a31565b610ce483610c3f565b81526020830151602082015260408301516040820152610d0660608401610c3f565b60608201526080830151608082015260a083015160a082015260c083015182811115610d30575f80fd5b610d3c87828601610c4e565b60c08301525060e083015160e082015280935050505092915050565b5f60208284031215610d68575f80fd5b5051919050565b5f8251610d80818460208701610b55565b919091019291505056fe360894a13ba1a3210667c828492db98dca3e2076cc3735a920a3ca505d382bbca26469706673582212207d1fa597574fd7909448af359b312de67ff55679e573ec0ba636eb179d857fdb64736f6c63430008140033",
					"opcodes": "PUSH1 0xA0 PUSH1 0x40 MSTORE ADDRESS PUSH1 0x80 MSTORE CALLVALUE DUP1 ISZERO PUSH2 0x13 JUMPI PUSH0 DUP1 REVERT JUMPDEST POP PUSH2 0x1C PUSH2 0x21 JUMP JUMPDEST PUSH2 0xD3 JUMP JUMPDEST PUSH32 0xF0C57E16840DF040F15088DC2F81FE391C3923BEC73E23A9662EFC9C229C6A00 DUP1 SLOAD PUSH9 0x10000000000000000 SWAP1 DIV PUSH1 0xFF AND ISZERO PUSH2 0x71 JUMPI PUSH1 0x40 MLOAD PUSH4 0xF92EE8A9 PUSH1 0xE0 SHL DUP2 MSTORE PUSH1 0x4 ADD PUSH1 0x40 MLOAD DUP1 SWAP2 SUB SWAP1 REVERT JUMPDEST DUP1 SLOAD PUSH1 0x1 PUSH1 0x1 PUSH1 0x40 SHL SUB SWAP1 DUP2 AND EQ PUSH2 0xD0 JUMPI DUP1 SLOAD PUSH1 0x1 PUSH1 0x1 PUSH1 0x40 SHL SUB NOT AND PUSH1 0x1 PUSH1 0x1 PUSH1 0x40 SHL SUB SWAP1 DUP2 OR DUP3 SSTORE PUSH1 0x40 MLOAD SWAP1 DUP2 MSTORE PUSH32 0xC7F505B2F371AE2175EE4913F4499E1F2633A7B5936321EED1CDAEB6115181D2 SWAP1 PUSH1 0x20 ADD PUSH1 0x40 MLOAD DUP1 SWAP2 SUB SWAP1 LOG1 JUMPDEST POP JUMP JUMPDEST PUSH1 0x80 MLOAD PUSH2 0xDE0 PUSH2 0xF9 PUSH0 CODECOPY PUSH0 DUP2 DUP2 PUSH2 0x539 ADD MSTORE DUP2 DUP2 PUSH2 0x562 ADD MSTORE PUSH2 0x6A6 ADD MSTORE PUSH2 0xDE0 PUSH0 RETURN INVALID PUSH1 0x80 PUSH1 0x40 MSTORE PUSH1 0x4 CALLDATASIZE LT PUSH2 0x79 JUMPI PUSH0 CALLDATALOAD PUSH1 0xE0 SHR DUP1 PUSH4 0x715018A6 GT PUSH2 0x4C JUMPI DUP1 PUSH4 0x715018A6 EQ PUSH2 0x104 JUMPI DUP1 PUSH4 0x8DA5CB5B EQ PUSH2 0x118 JUMPI DUP1 PUSH4 0xAD3CB1CC EQ PUSH2 0x15E JUMPI DUP1 PUSH4 0xF2FDE38B EQ PUSH2 0x19B JUMPI PUSH0 DUP1 REVERT JUMPDEST DUP1 PUSH4 0x485CC955 EQ PUSH2 0x7D JUMPI DUP1 PUSH4 0x4F1EF286 EQ PUSH2 0x9E JUMPI DUP1 PUSH4 0x52D1902D EQ PUSH2 0xB1 JUMPI DUP1 PUSH4 0x6247FCA9 EQ PUSH2 0xD8 JUMPI JUMPDEST PUSH0 DUP1 REVERT JUMPDEST CALLVALUE DUP1 ISZERO PUSH2 0x88 JUMPI PUSH0 DUP1 REVERT JUMPDEST POP PUSH2 0x9C PUSH2 0x97 CALLDATASIZE PUSH1 0x4 PUSH2 0x9EC JUMP JUMPDEST PUSH2 0x1BA JUMP JUMPDEST STOP JUMPDEST PUSH2 0x9C PUSH2 0xAC CALLDATASIZE PUSH1 0x4 PUSH2 0xAB3 JUMP JUMPDEST PUSH2 0x382 JUMP JUMPDEST CALLVALUE DUP1 ISZERO PUSH2 0xBC JUMPI PUSH0 DUP1 REVERT JUMPDEST POP PUSH2 0xC5 PUSH2 0x3A1 JUMP JUMPDEST PUSH1 0x40 MLOAD SWAP1 DUP2 MSTORE PUSH1 0x20 ADD JUMPDEST PUSH1 0x40 MLOAD DUP1 SWAP2 SUB SWAP1 RETURN JUMPDEST CALLVALUE DUP1 ISZERO PUSH2 0xE3 JUMPI PUSH0 DUP1 REVERT JUMPDEST POP PUSH2 0xF7 PUSH2 0xF2 CALLDATASIZE PUSH1 0x4 PUSH2 0xB3E JUMP JUMPDEST PUSH2 0x3BC JUMP JUMPDEST PUSH1 0x40 MLOAD PUSH2 0xCF SWAP2 SWAP1 PUSH2 0xBA2 JUMP JUMPDEST CALLVALUE DUP1 ISZERO PUSH2 0x10F JUMPI PUSH0 DUP1 REVERT JUMPDEST POP PUSH2 0x9C PUSH2 0x4C5 JUMP JUMPDEST CALLVALUE DUP1 ISZERO PUSH2 0x123 JUMPI PUSH0 DUP1 REVERT JUMPDEST POP PUSH32 0x9016D09D72D40FDAE2FD8CEAC6B6234C7706214FD39C1CD1E609A0528C199300 SLOAD PUSH1 0x40 MLOAD PUSH1 0x1 PUSH1 0x1 PUSH1 0xA0 SHL SUB SWAP1 SWAP2 AND DUP2 MSTORE PUSH1 0x20 ADD PUSH2 0xCF JUMP JUMPDEST CALLVALUE DUP1 ISZERO PUSH2 0x169 JUMPI PUSH0 DUP1 REVERT JUMPDEST POP PUSH2 0x18E PUSH1 0x40 MLOAD DUP1 PUSH1 0x40 ADD PUSH1 0x40 MSTORE DUP1 PUSH1 0x5 DUP2 MSTORE PUSH1 0x20 ADD PUSH5 0x352E302E3 PUSH1 0xDC SHL DUP2 MSTORE POP DUP2 JUMP JUMPDEST PUSH1 0x40 MLOAD PUSH2 0xCF SWAP2 SWAP1 PUSH2 0xC14 JUMP JUMPDEST CALLVALUE DUP1 ISZERO PUSH2 0x1A6 JUMPI PUSH0 DUP1 REVERT JUMPDEST POP PUSH2 0x9C PUSH2 0x1B5 CALLDATASIZE PUSH1 0x4 PUSH2 0xC26 JUMP JUMPDEST PUSH2 0x4D8 JUMP JUMPDEST PUSH32 0xF0C57E16840DF040F15088DC2F81FE391C3923BEC73E23A9662EFC9C229C6A00 DUP1 SLOAD PUSH1 0x1 PUSH1 0x40 SHL DUP2 DIV PUSH1 0xFF AND ISZERO SWAP1 PUSH8 0xFFFFFFFFFFFFFFFF AND PUSH0 DUP2 ISZERO DUP1 ISZERO PUSH2 0x1FF JUMPI POP DUP3 JUMPDEST SWAP1 POP PUSH0 DUP3 PUSH8 0xFFFFFFFFFFFFFFFF AND PUSH1 0x1 EQ DUP1 ISZERO PUSH2 0x21B JUMPI POP ADDRESS EXTCODESIZE ISZERO JUMPDEST SWAP1 POP DUP2 ISZERO DUP1 ISZERO PUSH2 0x229 JUMPI POP DUP1 ISZERO JUMPDEST ISZERO PUSH2 0x247 JUMPI PUSH1 0x40 MLOAD PUSH4 0xF92EE8A9 PUSH1 0xE0 SHL DUP2 MSTORE PUSH1 0x4 ADD PUSH1 0x40 MLOAD DUP1 SWAP2 SUB SWAP1 REVERT JUMPDEST DUP5 SLOAD PUSH8 0xFFFFFFFFFFFFFFFF NOT AND PUSH1 0x1 OR DUP6 SSTORE DUP4 ISZERO PUSH2 0x271 JUMPI DUP5 SLOAD PUSH1 0xFF PUSH1 0x40 SHL NOT AND PUSH1 0x1 PUSH1 0x40 SHL OR DUP6 SSTORE JUMPDEST PUSH1 0x1 PUSH1 0x1 PUSH1 0xA0 SHL SUB DUP8 AND PUSH2 0x2BC JUMPI PUSH1 0x40 MLOAD PUSH3 0x461BCD PUSH1 0xE5 SHL DUP2 MSTORE PUSH1 0x20 PUSH1 0x4 DUP3 ADD MSTORE PUSH1 0xD PUSH1 0x24 DUP3 ADD MSTORE PUSH13 0x24B73B30B634B21027BBB732B9 PUSH1 0x99 SHL PUSH1 0x44 DUP3 ADD MSTORE PUSH1 0x64 ADD JUMPDEST PUSH1 0x40 MLOAD DUP1 SWAP2 SUB SWAP1 REVERT JUMPDEST PUSH1 0x1 PUSH1 0x1 PUSH1 0xA0 SHL SUB DUP7 AND PUSH2 0x308 JUMPI PUSH1 0x40 MLOAD PUSH3 0x461BCD PUSH1 0xE5 SHL DUP2 MSTORE PUSH1 0x20 PUSH1 0x4 DUP3 ADD MSTORE PUSH1 0x13 PUSH1 0x24 DUP3 ADD MSTORE PUSH19 0x496E76616C6964204E46542041646472657373 PUSH1 0x68 SHL PUSH1 0x44 DUP3 ADD MSTORE PUSH1 0x64 ADD PUSH2 0x2B3 JUMP JUMPDEST PUSH0 DUP1 SLOAD PUSH1 0x1 PUSH1 0x1 PUSH1 0xA0 SHL SUB NOT AND PUSH1 0x1 PUSH1 0x1 PUSH1 0xA0 SHL SUB DUP9 AND OR SWAP1 SSTORE PUSH2 0x32B DUP8 PUSH2 0x515 JUMP JUMPDEST PUSH2 0x333 PUSH2 0x526 JUMP JUMPDEST DUP4 ISZERO PUSH2 0x379 JUMPI DUP5 SLOAD PUSH1 0xFF PUSH1 0x40 SHL NOT AND DUP6 SSTORE PUSH1 0x40 MLOAD PUSH1 0x1 DUP2 MSTORE PUSH32 0xC7F505B2F371AE2175EE4913F4499E1F2633A7B5936321EED1CDAEB6115181D2 SWAP1 PUSH1 0x20 ADD PUSH1 0x40 MLOAD DUP1 SWAP2 SUB SWAP1 LOG1 JUMPDEST POP POP POP POP POP POP POP JUMP JUMPDEST PUSH2 0x38A PUSH2 0x52E JUMP JUMPDEST PUSH2 0x393 DUP3 PUSH2 0x5D2 JUMP JUMPDEST PUSH2 0x39D DUP3 DUP3 PUSH2 0x5DA JUMP JUMPDEST POP POP JUMP JUMPDEST PUSH0 PUSH2 0x3AA PUSH2 0x69B JUMP JUMPDEST POP PUSH0 DUP1 MLOAD PUSH1 0x20 PUSH2 0xD8B DUP4 CODECOPY DUP2 MLOAD SWAP2 MSTORE SWAP1 JUMP JUMPDEST PUSH2 0x401 PUSH1 0x40 MLOAD DUP1 PUSH2 0x100 ADD PUSH1 0x40 MSTORE DUP1 PUSH0 ISZERO ISZERO DUP2 MSTORE PUSH1 0x20 ADD PUSH0 DUP2 MSTORE PUSH1 0x20 ADD PUSH0 DUP2 MSTORE PUSH1 0x20 ADD PUSH0 ISZERO ISZERO DUP2 MSTORE PUSH1 0x20 ADD PUSH0 DUP2 MSTORE PUSH1 0x20 ADD PUSH0 DUP2 MSTORE PUSH1 0x20 ADD PUSH1 0x60 DUP2 MSTORE PUSH1 0x20 ADD PUSH0 DUP2 MSTORE POP SWAP1 JUMP JUMPDEST PUSH0 DUP1 SLOAD PUSH1 0x40 MLOAD PUSH4 0x268879C1 PUSH1 0xE2 SHL DUP2 MSTORE PUSH1 0x4 DUP2 ADD DUP6 SWAP1 MSTORE PUSH1 0x1 PUSH1 0x1 PUSH1 0xA0 SHL SUB SWAP1 SWAP2 AND SWAP1 PUSH4 0x9A21E704 SWAP1 PUSH1 0x24 ADD PUSH0 PUSH1 0x40 MLOAD DUP1 DUP4 SUB DUP2 DUP7 GAS STATICCALL ISZERO DUP1 ISZERO PUSH2 0x447 JUMPI RETURNDATASIZE PUSH0 DUP1 RETURNDATACOPY RETURNDATASIZE PUSH0 REVERT JUMPDEST POP POP POP POP PUSH1 0x40 MLOAD RETURNDATASIZE PUSH0 DUP3 RETURNDATACOPY PUSH1 0x1F RETURNDATASIZE SWAP1 DUP2 ADD PUSH1 0x1F NOT AND DUP3 ADD PUSH1 0x40 MSTORE PUSH2 0x46E SWAP2 SWAP1 DUP2 ADD SWAP1 PUSH2 0xC98 JUMP JUMPDEST DUP1 MLOAD SWAP1 SWAP2 POP PUSH2 0x4BF JUMPI PUSH1 0x40 MLOAD PUSH3 0x461BCD PUSH1 0xE5 SHL DUP2 MSTORE PUSH1 0x20 PUSH1 0x4 DUP3 ADD MSTORE PUSH1 0x1F PUSH1 0x24 DUP3 ADD MSTORE PUSH32 0x596F752068617665206E6F742061637469766174656420796F7572204E465400 PUSH1 0x44 DUP3 ADD MSTORE PUSH1 0x64 ADD PUSH2 0x2B3 JUMP JUMPDEST SWAP3 SWAP2 POP POP JUMP JUMPDEST PUSH2 0x4CD PUSH2 0x6E4 JUMP JUMPDEST PUSH2 0x4D6 PUSH0 PUSH2 0x73F JUMP JUMPDEST JUMP JUMPDEST PUSH2 0x4E0 PUSH2 0x6E4 JUMP JUMPDEST PUSH1 0x1 PUSH1 0x1 PUSH1 0xA0 SHL SUB DUP2 AND PUSH2 0x509 JUMPI PUSH1 0x40 MLOAD PUSH4 0x1E4FBDF7 PUSH1 0xE0 SHL DUP2 MSTORE PUSH0 PUSH1 0x4 DUP3 ADD MSTORE PUSH1 0x24 ADD PUSH2 0x2B3 JUMP JUMPDEST PUSH2 0x512 DUP2 PUSH2 0x73F JUMP JUMPDEST POP JUMP JUMPDEST PUSH2 0x51D PUSH2 0x7AF JUMP JUMPDEST PUSH2 0x512 DUP2 PUSH2 0x7F8 JUMP JUMPDEST PUSH2 0x4D6 PUSH2 0x7AF JUMP JUMPDEST ADDRESS PUSH1 0x1 PUSH1 0x1 PUSH1 0xA0 SHL SUB PUSH32 0x0 AND EQ DUP1 PUSH2 0x5B4 JUMPI POP PUSH32 0x0 PUSH1 0x1 PUSH1 0x1 PUSH1 0xA0 SHL SUB AND PUSH2 0x5A8 PUSH0 DUP1 MLOAD PUSH1 0x20 PUSH2 0xD8B DUP4 CODECOPY DUP2 MLOAD SWAP2 MSTORE SLOAD PUSH1 0x1 PUSH1 0x1 PUSH1 0xA0 SHL SUB AND SWAP1 JUMP JUMPDEST PUSH1 0x1 PUSH1 0x1 PUSH1 0xA0 SHL SUB AND EQ ISZERO JUMPDEST ISZERO PUSH2 0x4D6 JUMPI PUSH1 0x40 MLOAD PUSH4 0x703E46DD PUSH1 0xE1 SHL DUP2 MSTORE PUSH1 0x4 ADD PUSH1 0x40 MLOAD DUP1 SWAP2 SUB SWAP1 REVERT JUMPDEST PUSH2 0x512 PUSH2 0x6E4 JUMP JUMPDEST DUP2 PUSH1 0x1 PUSH1 0x1 PUSH1 0xA0 SHL SUB AND PUSH4 0x52D1902D PUSH1 0x40 MLOAD DUP2 PUSH4 0xFFFFFFFF AND PUSH1 0xE0 SHL DUP2 MSTORE PUSH1 0x4 ADD PUSH1 0x20 PUSH1 0x40 MLOAD DUP1 DUP4 SUB DUP2 DUP7 GAS STATICCALL SWAP3 POP POP POP DUP1 ISZERO PUSH2 0x634 JUMPI POP PUSH1 0x40 DUP1 MLOAD PUSH1 0x1F RETURNDATASIZE SWAP1 DUP2 ADD PUSH1 0x1F NOT AND DUP3 ADD SWAP1 SWAP3 MSTORE PUSH2 0x631 SWAP2 DUP2 ADD SWAP1 PUSH2 0xD58 JUMP JUMPDEST PUSH1 0x1 JUMPDEST PUSH2 0x65C JUMPI PUSH1 0x40 MLOAD PUSH4 0x4C9C8CE3 PUSH1 0xE0 SHL DUP2 MSTORE PUSH1 0x1 PUSH1 0x1 PUSH1 0xA0 SHL SUB DUP4 AND PUSH1 0x4 DUP3 ADD MSTORE PUSH1 0x24 ADD PUSH2 0x2B3 JUMP JUMPDEST PUSH0 DUP1 MLOAD PUSH1 0x20 PUSH2 0xD8B DUP4 CODECOPY DUP2 MLOAD SWAP2 MSTORE DUP2 EQ PUSH2 0x68C JUMPI PUSH1 0x40 MLOAD PUSH4 0x2A875269 PUSH1 0xE2 SHL DUP2 MSTORE PUSH1 0x4 DUP2 ADD DUP3 SWAP1 MSTORE PUSH1 0x24 ADD PUSH2 0x2B3 JUMP JUMPDEST PUSH2 0x696 DUP4 DUP4 PUSH2 0x800 JUMP JUMPDEST POP POP POP JUMP JUMPDEST ADDRESS PUSH1 0x1 PUSH1 0x1 PUSH1 0xA0 SHL SUB PUSH32 0x0 AND EQ PUSH2 0x4D6 JUMPI PUSH1 0x40 MLOAD PUSH4 0x703E46DD PUSH1 0xE1 SHL DUP2 MSTORE PUSH1 0x4 ADD PUSH1 0x40 MLOAD DUP1 SWAP2 SUB SWAP1 REVERT JUMPDEST CALLER PUSH2 0x716 PUSH32 0x9016D09D72D40FDAE2FD8CEAC6B6234C7706214FD39C1CD1E609A0528C199300 SLOAD PUSH1 0x1 PUSH1 0x1 PUSH1 0xA0 SHL SUB AND SWAP1 JUMP JUMPDEST PUSH1 0x1 PUSH1 0x1 PUSH1 0xA0 SHL SUB AND EQ PUSH2 0x4D6 JUMPI PUSH1 0x40 MLOAD PUSH4 0x118CDAA7 PUSH1 0xE0 SHL DUP2 MSTORE CALLER PUSH1 0x4 DUP3 ADD MSTORE PUSH1 0x24 ADD PUSH2 0x2B3 JUMP JUMPDEST PUSH32 0x9016D09D72D40FDAE2FD8CEAC6B6234C7706214FD39C1CD1E609A0528C199300 DUP1 SLOAD PUSH1 0x1 PUSH1 0x1 PUSH1 0xA0 SHL SUB NOT DUP2 AND PUSH1 0x1 PUSH1 0x1 PUSH1 0xA0 SHL SUB DUP5 DUP2 AND SWAP2 DUP3 OR DUP5 SSTORE PUSH1 0x40 MLOAD SWAP3 AND SWAP2 DUP3 SWAP1 PUSH32 0x8BE0079C531659141344CD1FD0A4F28419497F9722A3DAAFE3B4186F6B6457E0 SWAP1 PUSH0 SWAP1 LOG3 POP POP POP JUMP JUMPDEST PUSH32 0xF0C57E16840DF040F15088DC2F81FE391C3923BEC73E23A9662EFC9C229C6A00 SLOAD PUSH1 0x1 PUSH1 0x40 SHL SWAP1 DIV PUSH1 0xFF AND PUSH2 0x4D6 JUMPI PUSH1 0x40 MLOAD PUSH4 0x1AFCD79F PUSH1 0xE3 SHL DUP2 MSTORE PUSH1 0x4 ADD PUSH1 0x40 MLOAD DUP1 SWAP2 SUB SWAP1 REVERT JUMPDEST PUSH2 0x4E0 PUSH2 0x7AF JUMP JUMPDEST PUSH2 0x809 DUP3 PUSH2 0x855 JUMP JUMPDEST PUSH1 0x40 MLOAD PUSH1 0x1 PUSH1 0x1 PUSH1 0xA0 SHL SUB DUP4 AND SWAP1 PUSH32 0xBC7CD75A20EE27FD9ADEBAB32041F755214DBC6BFFA90CC0225B39DA2E5C2D3B SWAP1 PUSH0 SWAP1 LOG2 DUP1 MLOAD ISZERO PUSH2 0x84D JUMPI PUSH2 0x696 DUP3 DUP3 PUSH2 0x8B8 JUMP JUMPDEST PUSH2 0x39D PUSH2 0x92A JUMP JUMPDEST DUP1 PUSH1 0x1 PUSH1 0x1 PUSH1 0xA0 SHL SUB AND EXTCODESIZE PUSH0 SUB PUSH2 0x88A JUMPI PUSH1 0x40 MLOAD PUSH4 0x4C9C8CE3 PUSH1 0xE0 SHL DUP2 MSTORE PUSH1 0x1 PUSH1 0x1 PUSH1 0xA0 SHL SUB DUP3 AND PUSH1 0x4 DUP3 ADD MSTORE PUSH1 0x24 ADD PUSH2 0x2B3 JUMP JUMPDEST PUSH0 DUP1 MLOAD PUSH1 0x20 PUSH2 0xD8B DUP4 CODECOPY DUP2 MLOAD SWAP2 MSTORE DUP1 SLOAD PUSH1 0x1 PUSH1 0x1 PUSH1 0xA0 SHL SUB NOT AND PUSH1 0x1 PUSH1 0x1 PUSH1 0xA0 SHL SUB SWAP3 SWAP1 SWAP3 AND SWAP2 SWAP1 SWAP2 OR SWAP1 SSTORE JUMP JUMPDEST PUSH1 0x60 PUSH0 DUP1 DUP5 PUSH1 0x1 PUSH1 0x1 PUSH1 0xA0 SHL SUB AND DUP5 PUSH1 0x40 MLOAD PUSH2 0x8D4 SWAP2 SWAP1 PUSH2 0xD6F JUMP JUMPDEST PUSH0 PUSH1 0x40 MLOAD DUP1 DUP4 SUB DUP2 DUP6 GAS DELEGATECALL SWAP2 POP POP RETURNDATASIZE DUP1 PUSH0 DUP2 EQ PUSH2 0x90C JUMPI PUSH1 0x40 MLOAD SWAP2 POP PUSH1 0x1F NOT PUSH1 0x3F RETURNDATASIZE ADD AND DUP3 ADD PUSH1 0x40 MSTORE RETURNDATASIZE DUP3 MSTORE RETURNDATASIZE PUSH0 PUSH1 0x20 DUP5 ADD RETURNDATACOPY PUSH2 0x911 JUMP JUMPDEST PUSH1 0x60 SWAP2 POP JUMPDEST POP SWAP2 POP SWAP2 POP PUSH2 0x921 DUP6 DUP4 DUP4 PUSH2 0x949 JUMP JUMPDEST SWAP6 SWAP5 POP POP POP POP POP JUMP JUMPDEST CALLVALUE ISZERO PUSH2 0x4D6 JUMPI PUSH1 0x40 MLOAD PUSH4 0xB398979F PUSH1 0xE0 SHL DUP2 MSTORE PUSH1 0x4 ADD PUSH1 0x40 MLOAD DUP1 SWAP2 SUB SWAP1 REVERT JUMPDEST PUSH1 0x60 DUP3 PUSH2 0x95E JUMPI PUSH2 0x959 DUP3 PUSH2 0x9A8 JUMP JUMPDEST PUSH2 0x9A1 JUMP JUMPDEST DUP2 MLOAD ISZERO DUP1 ISZERO PUSH2 0x975 JUMPI POP PUSH1 0x1 PUSH1 0x1 PUSH1 0xA0 SHL SUB DUP5 AND EXTCODESIZE ISZERO JUMPDEST ISZERO PUSH2 0x99E JUMPI PUSH1 0x40 MLOAD PUSH4 0x9996B315 PUSH1 0xE0 SHL DUP2 MSTORE PUSH1 0x1 PUSH1 0x1 PUSH1 0xA0 SHL SUB DUP6 AND PUSH1 0x4 DUP3 ADD MSTORE PUSH1 0x24 ADD PUSH2 0x2B3 JUMP JUMPDEST POP DUP1 JUMPDEST SWAP4 SWAP3 POP POP POP JUMP JUMPDEST DUP1 MLOAD ISZERO PUSH2 0x9B8 JUMPI DUP1 MLOAD DUP1 DUP3 PUSH1 0x20 ADD REVERT JUMPDEST PUSH1 0x40 MLOAD PUSH4 0xA12F521 PUSH1 0xE1 SHL DUP2 MSTORE PUSH1 0x4 ADD PUSH1 0x40 MLOAD DUP1 SWAP2 SUB SWAP1 REVERT JUMPDEST DUP1 CALLDATALOAD PUSH1 0x1 PUSH1 0x1 PUSH1 0xA0 SHL SUB DUP2 AND DUP2 EQ PUSH2 0x9E7 JUMPI PUSH0 DUP1 REVERT JUMPDEST SWAP2 SWAP1 POP JUMP JUMPDEST PUSH0 DUP1 PUSH1 0x40 DUP4 DUP6 SUB SLT ISZERO PUSH2 0x9FD JUMPI PUSH0 DUP1 REVERT JUMPDEST PUSH2 0xA06 DUP4 PUSH2 0x9D1 JUMP JUMPDEST SWAP2 POP PUSH2 0xA14 PUSH1 0x20 DUP5 ADD PUSH2 0x9D1 JUMP JUMPDEST SWAP1 POP SWAP3 POP SWAP3 SWAP1 POP JUMP JUMPDEST PUSH4 0x4E487B71 PUSH1 0xE0 SHL PUSH0 MSTORE PUSH1 0x41 PUSH1 0x4 MSTORE PUSH1 0x24 PUSH0 REVERT JUMPDEST PUSH1 0x40 MLOAD PUSH2 0x100 DUP2 ADD PUSH8 0xFFFFFFFFFFFFFFFF DUP2 GT DUP3 DUP3 LT OR ISZERO PUSH2 0xA55 JUMPI PUSH2 0xA55 PUSH2 0xA1D JUMP JUMPDEST PUSH1 0x40 MSTORE SWAP1 JUMP JUMPDEST PUSH1 0x40 MLOAD PUSH1 0x1F DUP3 ADD PUSH1 0x1F NOT AND DUP2 ADD PUSH8 0xFFFFFFFFFFFFFFFF DUP2 GT DUP3 DUP3 LT OR ISZERO PUSH2 0xA84 JUMPI PUSH2 0xA84 PUSH2 0xA1D JUMP JUMPDEST PUSH1 0x40 MSTORE SWAP2 SWAP1 POP JUMP JUMPDEST PUSH0 PUSH8 0xFFFFFFFFFFFFFFFF DUP3 GT ISZERO PUSH2 0xAA5 JUMPI PUSH2 0xAA5 PUSH2 0xA1D JUMP JUMPDEST POP PUSH1 0x1F ADD PUSH1 0x1F NOT AND PUSH1 0x20 ADD SWAP1 JUMP JUMPDEST PUSH0 DUP1 PUSH1 0x40 DUP4 DUP6 SUB SLT ISZERO PUSH2 0xAC4 JUMPI PUSH0 DUP1 REVERT JUMPDEST PUSH2 0xACD DUP4 PUSH2 0x9D1 JUMP JUMPDEST SWAP2 POP PUSH1 0x20 DUP4 ADD CALLDATALOAD PUSH8 0xFFFFFFFFFFFFFFFF DUP2 GT ISZERO PUSH2 0xAE8 JUMPI PUSH0 DUP1 REVERT JUMPDEST DUP4 ADD PUSH1 0x1F DUP2 ADD DUP6 SGT PUSH2 0xAF8 JUMPI PUSH0 DUP1 REVERT JUMPDEST DUP1 CALLDATALOAD PUSH2 0xB0B PUSH2 0xB06 DUP3 PUSH2 0xA8C JUMP JUMPDEST PUSH2 0xA5B JUMP JUMPDEST DUP2 DUP2 MSTORE DUP7 PUSH1 0x20 DUP4 DUP6 ADD ADD GT ISZERO PUSH2 0xB1F JUMPI PUSH0 DUP1 REVERT JUMPDEST DUP2 PUSH1 0x20 DUP5 ADD PUSH1 0x20 DUP4 ADD CALLDATACOPY PUSH0 PUSH1 0x20 DUP4 DUP4 ADD ADD MSTORE DUP1 SWAP4 POP POP POP POP SWAP3 POP SWAP3 SWAP1 POP JUMP JUMPDEST PUSH0 PUSH1 0x20 DUP3 DUP5 SUB SLT ISZERO PUSH2 0xB4E JUMPI PUSH0 DUP1 REVERT JUMPDEST POP CALLDATALOAD SWAP2 SWAP1 POP JUMP JUMPDEST PUSH0 JUMPDEST DUP4 DUP2 LT ISZERO PUSH2 0xB6F JUMPI DUP2 DUP2 ADD MLOAD DUP4 DUP3 ADD MSTORE PUSH1 0x20 ADD PUSH2 0xB57 JUMP JUMPDEST POP POP PUSH0 SWAP2 ADD MSTORE JUMP JUMPDEST PUSH0 DUP2 MLOAD DUP1 DUP5 MSTORE PUSH2 0xB8E DUP2 PUSH1 0x20 DUP7 ADD PUSH1 0x20 DUP7 ADD PUSH2 0xB55 JUMP JUMPDEST PUSH1 0x1F ADD PUSH1 0x1F NOT AND SWAP3 SWAP1 SWAP3 ADD PUSH1 0x20 ADD SWAP3 SWAP2 POP POP JUMP JUMPDEST PUSH1 0x20 DUP2 MSTORE DUP2 MLOAD ISZERO ISZERO PUSH1 0x20 DUP3 ADD MSTORE PUSH1 0x20 DUP3 ADD MLOAD PUSH1 0x40 DUP3 ADD MSTORE PUSH1 0x40 DUP3 ADD MLOAD PUSH1 0x60 DUP3 ADD MSTORE PUSH1 0x60 DUP3 ADD MLOAD ISZERO ISZERO PUSH1 0x80 DUP3 ADD MSTORE PUSH1 0x80 DUP3 ADD MLOAD PUSH1 0xA0 DUP3 ADD MSTORE PUSH1 0xA0 DUP3 ADD MLOAD PUSH1 0xC0 DUP3 ADD MSTORE PUSH0 PUSH1 0xC0 DUP4 ADD MLOAD PUSH2 0x100 DUP1 PUSH1 0xE0 DUP6 ADD MSTORE PUSH2 0xC00 PUSH2 0x120 DUP6 ADD DUP4 PUSH2 0xB77 JUMP JUMPDEST PUSH1 0xE0 SWAP6 SWAP1 SWAP6 ADD MLOAD SWAP4 ADD SWAP3 SWAP1 SWAP3 MSTORE POP SWAP1 SWAP2 SWAP1 POP JUMP JUMPDEST PUSH1 0x20 DUP2 MSTORE PUSH0 PUSH2 0x9A1 PUSH1 0x20 DUP4 ADD DUP5 PUSH2 0xB77 JUMP JUMPDEST PUSH0 PUSH1 0x20 DUP3 DUP5 SUB SLT ISZERO PUSH2 0xC36 JUMPI PUSH0 DUP1 REVERT JUMPDEST PUSH2 0x9A1 DUP3 PUSH2 0x9D1 JUMP JUMPDEST DUP1 MLOAD DUP1 ISZERO ISZERO DUP2 EQ PUSH2 0x9E7 JUMPI PUSH0 DUP1 REVERT JUMPDEST PUSH0 DUP3 PUSH1 0x1F DUP4 ADD SLT PUSH2 0xC5D JUMPI PUSH0 DUP1 REVERT JUMPDEST DUP2 MLOAD PUSH2 0xC6B PUSH2 0xB06 DUP3 PUSH2 0xA8C JUMP JUMPDEST DUP2 DUP2 MSTORE DUP5 PUSH1 0x20 DUP4 DUP7 ADD ADD GT ISZERO PUSH2 0xC7F JUMPI PUSH0 DUP1 REVERT JUMPDEST PUSH2 0xC90 DUP3 PUSH1 0x20 DUP4 ADD PUSH1 0x20 DUP8 ADD PUSH2 0xB55 JUMP JUMPDEST SWAP5 SWAP4 POP POP POP POP JUMP JUMPDEST PUSH0 PUSH1 0x20 DUP3 DUP5 SUB SLT ISZERO PUSH2 0xCA8 JUMPI PUSH0 DUP1 REVERT JUMPDEST DUP2 MLOAD PUSH8 0xFFFFFFFFFFFFFFFF DUP1 DUP3 GT ISZERO PUSH2 0xCBF JUMPI PUSH0 DUP1 REVERT JUMPDEST SWAP1 DUP4 ADD SWAP1 PUSH2 0x100 DUP3 DUP7 SUB SLT ISZERO PUSH2 0xCD3 JUMPI PUSH0 DUP1 REVERT JUMPDEST PUSH2 0xCDB PUSH2 0xA31 JUMP JUMPDEST PUSH2 0xCE4 DUP4 PUSH2 0xC3F JUMP JUMPDEST DUP2 MSTORE PUSH1 0x20 DUP4 ADD MLOAD PUSH1 0x20 DUP3 ADD MSTORE PUSH1 0x40 DUP4 ADD MLOAD PUSH1 0x40 DUP3 ADD MSTORE PUSH2 0xD06 PUSH1 0x60 DUP5 ADD PUSH2 0xC3F JUMP JUMPDEST PUSH1 0x60 DUP3 ADD MSTORE PUSH1 0x80 DUP4 ADD MLOAD PUSH1 0x80 DUP3 ADD MSTORE PUSH1 0xA0 DUP4 ADD MLOAD PUSH1 0xA0 DUP3 ADD MSTORE PUSH1 0xC0 DUP4 ADD MLOAD DUP3 DUP2 GT ISZERO PUSH2 0xD30 JUMPI PUSH0 DUP1 REVERT JUMPDEST PUSH2 0xD3C DUP8 DUP3 DUP7 ADD PUSH2 0xC4E JUMP JUMPDEST PUSH1 0xC0 DUP4 ADD MSTORE POP PUSH1 0xE0 DUP4 ADD MLOAD PUSH1 0xE0 DUP3 ADD MSTORE DUP1 SWAP4 POP POP POP POP SWAP3 SWAP2 POP POP JUMP JUMPDEST PUSH0 PUSH1 0x20 DUP3 DUP5 SUB SLT ISZERO PUSH2 0xD68 JUMPI PUSH0 DUP1 REVERT JUMPDEST POP MLOAD SWAP2 SWAP1 POP JUMP JUMPDEST PUSH0 DUP3 MLOAD PUSH2 0xD80 DUP2 DUP5 PUSH1 0x20 DUP8 ADD PUSH2 0xB55 JUMP JUMPDEST SWAP2 SWAP1 SWAP2 ADD SWAP3 SWAP2 POP POP JUMP INVALID CALLDATASIZE ADDMOD SWAP5 LOG1 EXTCODESIZE LOG1 LOG3 0x21 MOD PUSH8 0xC828492DB98DCA3E KECCAK256 PUSH23 0xCC3735A920A3CA505D382BBCA26469706673582212207D 0x1F 0xA5 SWAP8 JUMPI 0x4F 0xD7 SWAP1 SWAP5 BASEFEE 0xAF CALLDATALOAD SWAP12 BALANCE 0x2D 0xE6 PUSH32 0xF55679E573EC0BA636EB179D857FDB64736F6C63430008140033000000000000 "
				},
				"gasEstimates": {
					"creation": {
						"codeDepositCost": "710400",
						"executionCost": "infinite",
						"totalCost": "infinite"
					},
					"external": {
						"UPGRADE_INTERFACE_VERSION()": "infinite",
						"initialize(address,address)": "infinite",
						"owner()": "2322",
						"proxiableUUID()": "infinite",
						"renounceOwnership()": "infinite",
						"transferOwnership(address)": "28431",
						"upgradeToAndCall(address,bytes)": "infinite",
						"whyBroken(uint256)": "infinite"
					},
					"internal": {
						"_authorizeUpgrade(address)": "infinite"
					}
				},
				"methodIdentifiers": {
					"UPGRADE_INTERFACE_VERSION()": "ad3cb1cc",
					"initialize(address,address)": "485cc955",
					"owner()": "8da5cb5b",
					"proxiableUUID()": "52d1902d",
					"renounceOwnership()": "715018a6",
					"transferOwnership(address)": "f2fde38b",
					"upgradeToAndCall(address,bytes)": "4f1ef286",
					"whyBroken(uint256)": "6247fca9"
				}
			},
			"storageLayout": {
				"storage": [
					{
						"astId": 1456,
						"contract": "Contracts/Query.sol:NFTMinter",
						"label": "nftAddress",
						"offset": 0,
						"slot": "0",
						"type": "t_address"
					}
				],
				"types": {
					"t_address": {
						"encoding": "inplace",
						"label": "address",
						"numberOfBytes": "20"
					}
				}
			},
			"userdoc": {
				"kind": "user",
				"methods": {},
				"version": 1
			}
		}
	}
}